:100000000C9434000C9446000C9446000C9446006A
:100010000C9446000C9446000C9446000C94460048
:100020000C9446000C9446000C9446000C94460038
:100030000C9446000C9446000C9446000C94460028
:100040000C9446000C947D010C9446000C944600E0
:100050000C9446000C9446000C9446000C94460008
:100060000C9446000C94460011241FBECFEFD8E03C
:10007000DEBFCDBF21E0A0E0B1E001C01D92A53000
:10008000B207E1F70E9474000C94C8010C940000C0
:1000900098B19E7F98B98BB985E08A95F1F70000F9
:1000A00088B18D7F88B98AE18A95F1F700C088B15F
:1000B000826088B98AE18A95F1F700C088B18160D1
:1000C00088B90895CF93C62F98B1977F98B90E94A9
:1000D000480088B1886088B98C2F0E94480088B198
:1000E000877F88B9CF91089584B1836184B984B141
:1000F000837D84B987B18F6187B98FEF8AB980EC2E
:100100008CBD80E48093800089E080938100109210
:10011000820010928900109288001092850010923F
:1001200084001092040185B1816085B988B187602F
:1001300088B985B18E7F85B98FE39CE90197F1F786
:1001400000C0000085B1816085B98FE39CE901970B
:10015000F1F700C0000060E082E20E94620060E00F
:1001600087E20E94620061E088E20E94620062E031
:1001700088E20E94620064E088E20E94620065E01A
:1001800088E20E94620066E088E20E94620060E00D
:100190008BE20E94620061E780E30E9462006DE0F2
:1001A00084E30E94620063E388E30E94620061E0EE
:1001B0008CE30E94620063E280E40E9462006DE2D0
:1001C00084E40E94620066E288E40E94620060E0CB
:1001D0008CE40E9462006FE580E50E94620069E99C
:1001E00084E50E9462006FE588E50E94620064E990
:1001F0008CE50E94620065E080E60E94620065E096
:1002000084E60E94620065E088E60E94620067E082
:100210008CE60E94620062E080E70E94620062E079
:1002200084E70E94620062E088E70E94620062E068
:100230008CE70E94620061E180E80E94620061E157
:1002400084E80E94620061E188E80E94620066EA38
:100250008CE80E94620060E080E90E94620060E039
:1002600084E90E94620060E088E90E94620060E028
:100270008CE90E94620062E380EB0E94620060EC05
:1002800084EB0E94620060E088E20E94620062E209
:1002900084EA0E94620069E680EA0E946200789423
:1002A000FFCFCF93C62F98B1906198B90E944800B4
:1002B00088B1886088B98C2F0E94480088B1877EF9
:1002C00088B9CF910895CF93DF93C82FD62FF89494
:1002D000442319F0413021F006C00E94620009C099
:1002E0000E94510106C00E9462006D2F8C2F0E9457
:1002F00051017894DF91CF9108951F920F920FB61C
:100300000F9211242F933F934F935F936F937F939B
:100310008F939F93AF93BF93EF93FF938FB7E0E0DB
:10032000F1E08083F8948481813041F018F08230CC
:1003300049F010C08EB5809303010CC08EB5809338
:10034000010108C06EB5E0E0F1E062834381818184
:100350000E946301E0E0F1E084818F5F8483833059
:1003600010F0109204011EBC809100018FBFFF911C
:10037000EF91BF91AF919F918F917F916F915F911D
:100380004F913F912F910F900FBE0F901F90189596
:04039000F894FFCF0F
:00000001FF
