:020000020000FC
:100066000FE307B90FEF0AB902E104B974E184E6B8
:1000760094E69A950000E9F78A95D1F77A95B9F74B
:100086000CE308B900E000932C0000E400932C0078
:1000960000E40093800009E00093810000E00093F3
:1000A6008200009385000093840045987EE184E6F3
:1000B60094E69A950000E9F78A95D1F77A95B9F70B
:1000C600459A7EE184E694E69A950000E9F78A95DA
:1000D600D1F77A95B9F741982F93449822E22BB934
:1000E60071E081E093E09A950000E9F78A95D1F7EF
:1000F6007A95B9F7439871E081E09AE09A95000005
:10010600E9F78A95D1F77A95B9F7439A71E081E0D4
:100116009AE09A950000E9F78A95D1F77A95B9F7AA
:10012600449A2F91419A2F93449820E02BB971E07D
:1001360081E093E09A950000E9F78A95D1F77A95E0
:10014600B9F7439871E081E09AE09A950000E9F7E3
:100156008A95D1F77A95B9F7439A71E081E09AE0EA
:100166009A950000E9F78A95D1F77A95B9F7449AF6
:100176002F91409A2F93449822E22BB971E081E0A7
:1001860093E09A950000E9F78A95D1F77A95B9F741
:10019600439871E081E09AE09A950000E9F78A9524
:1001A600D1F77A95B9F7439A71E081E09AE09A958A
:1001B6000000E9F78A95D1F77A95B9F7449A2F9115
:1001C600419A409A2F93449820E02BB971E081E040
:1001D60093E09A950000E9F78A95D1F77A95B9F7F1
:1001E600439871E081E09AE09A950000E9F78A95D4
:1001F600D1F77A95B9F7439A71E081E09AE09A953A
:100206000000E9F78A95D1F77A95B9F7449A2F91C4
:100216004198409841982F93449827E22BB971E072
:1002260081E093E09A950000E9F78A95D1F77A95EF
:10023600B9F7439871E081E09AE09A950000E9F7F2
:100246008A95D1F77A95B9F7439A71E081E09AE0F9
:100256009A950000E9F78A95D1F77A95B9F7449A05
:100266002F91419A2F93449820E02BB971E081E0B9
:1002760093E09A950000E9F78A95D1F77A95B9F750
:10028600439871E081E09AE09A950000E9F78A9533
:10029600D1F77A95B9F7439A71E081E09AE09A9599
:1002A6000000E9F78A95D1F77A95B9F7449A2F9124
:1002B600409A2F93449827E22BB971E081E093E0AE
:1002C6009A950000E9F78A95D1F77A95B9F7439898
:1002D60071E081E09AE09A950000E9F78A95D1F7F6
:1002E6007A95B9F7439A71E081E09AE09A95000011
:1002F600E9F78A95D1F77A95B9F7449A2F91419AF9
:10030600409A2F93449820E02BB971E081E093E066
:100316009A950000E9F78A95D1F77A95B9F7439847
:1003260071E081E09AE09A950000E9F78A95D1F7A5
:100336007A95B9F7439A71E081E09AE09A950000C0
:10034600E9F78A95D1F77A95B9F7449A2F914198AA
:10035600409841982F93449828E22BB971E081E0A8
:1003660093E09A950000E9F78A95D1F77A95B9F75F
:10037600439871E081E09AE09A950000E9F78A9542
:10038600D1F77A95B9F7439A71E081E09AE09A95A8
:100396000000E9F78A95D1F77A95B9F7449A2F9133
:1003A600419A2F93449820E02BB971E081E093E0C5
:1003B6009A950000E9F78A95D1F77A95B9F74398A7
:1003C60071E081E09AE09A950000E9F78A95D1F705
:1003D6007A95B9F7439A71E081E09AE09A95000020
:1003E600E9F78A95D1F77A95B9F7449A2F91409A09
:1003F6002F93449828E22BB971E081E093E09A9517
:100406000000E9F78A95D1F77A95B9F7439871E034
:1004160081E09AE09A950000E9F78A95D1F77A95F6
:10042600B9F7439A71E081E09AE09A950000E9F7FE
:100436008A95D1F77A95B9F7449A2F91419A409ABD
:100446002F93449820E02BB971E081E093E09A95D0
:100456000000E9F78A95D1F77A95B9F7439871E0E4
:1004660081E09AE09A950000E9F78A95D1F77A95A6
:10047600B9F7439A71E081E09AE09A950000E9F7AE
:100486008A95D1F77A95B9F7449A2F914198409871
:1004960041982F93449828E22BB971E081E093E0CC
:1004A6009A950000E9F78A95D1F77A95B9F74398B6
:1004B60071E081E09AE09A950000E9F78A95D1F714
:1004C6007A95B9F7439A71E081E09AE09A9500002F
:1004D600E9F78A95D1F77A95B9F7449A2F91419A17
:1004E6002F93449821E02BB971E081E093E09A952F
:1004F6000000E9F78A95D1F77A95B9F7439871E044
:1005060081E09AE09A950000E9F78A95D1F77A9505
:10051600B9F7439A71E081E09AE09A950000E9F70D
:100526008A95D1F77A95B9F7449A2F91409A2F93E5
:10053600449828E22BB971E081E093E09A95000097
:10054600E9F78A95D1F77A95B9F7439871E081E092
:100556009AE09A950000E9F78A95D1F77A95B9F766
:10056600439A71E081E09AE09A950000E9F78A954E
:10057600D1F77A95B9F7449A2F91419A409A2F93D9
:10058600449821E02BB971E081E093E09A95000050
:10059600E9F78A95D1F77A95B9F7439871E081E042
:1005A6009AE09A950000E9F78A95D1F77A95B9F716
:1005B600439A71E081E09AE09A950000E9F78A95FE
:1005C600D1F77A95B9F7449A2F9141984098419876
:1005D6002F93449828E22BB971E081E093E09A9535
:1005E6000000E9F78A95D1F77A95B9F7439871E053
:1005F60081E09AE09A950000E9F78A95D1F77A9515
:10060600B9F7439A71E081E09AE09A950000E9F71C
:100616008A95D1F77A95B9F7449A2F91419A2F93F3
:10062600449822E02BB971E081E093E09A950000AE
:10063600E9F78A95D1F77A95B9F7439871E081E0A1
:100646009AE09A950000E9F78A95D1F77A95B9F775
:10065600439A71E081E09AE09A950000E9F78A955D
:10066600D1F77A95B9F7449A2F91409A2F934498E7
:1006760028E22BB971E081E093E09A950000E9F752
:100686008A95D1F77A95B9F7439871E081E09AE0B7
:100696009A950000E9F78A95D1F77A95B9F7439AC2
:1006A60071E081E09AE09A950000E9F78A95D1F722
:1006B6007A95B9F7449A2F91419A409A2F93449884
:1006C60022E02BB971E081E093E09A950000E9F70A
:1006D6008A95D1F77A95B9F7439871E081E09AE067
:1006E6009A950000E9F78A95D1F77A95B9F7439A72
:1006F60071E081E09AE09A950000E9F78A95D1F7D2
:100706007A95B9F7449A2F914198409841982F933A
:10071600449828E22BB971E081E093E09A950000B5
:10072600E9F78A95D1F77A95B9F7439871E081E0B0
:100736009AE09A950000E9F78A95D1F77A95B9F784
:10074600439A71E081E09AE09A950000E9F78A956C
:10075600D1F77A95B9F7449A2F91419A2F934498F5
:1007660024E02BB971E081E093E09A950000E9F767
:100776008A95D1F77A95B9F7439871E081E09AE0C6
:100786009A950000E9F78A95D1F77A95B9F7439AD1
:1007960071E081E09AE09A950000E9F78A95D1F731
:1007A6007A95B9F7449A2F91409A2F93449828E264
:1007B6002BB971E081E093E09A950000E9F78A95FC
:1007C600D1F77A95B9F7439871E081E09AE09A9566
:1007D6000000E9F78A95D1F77A95B9F7439A71E05F
:1007E60081E09AE09A950000E9F78A95D1F77A9523
:1007F600B9F7449A2F91419A409A2F93449824E04E
:100806002BB971E081E093E09A950000E9F78A95AB
:10081600D1F77A95B9F7439871E081E09AE09A9515
:100826000000E9F78A95D1F77A95B9F7439A71E00E
:1008360081E09AE09A950000E9F78A95D1F77A95D2
:10084600B9F7449A2F914198409841982F9344982C
:1008560028E22BB971E081E093E09A950000E9F770
:100866008A95D1F77A95B9F7439871E081E09AE0D5
:100876009A950000E9F78A95D1F77A95B9F7439AE0
:1008860071E081E09AE09A950000E9F78A95D1F740
:100896007A95B9F7449A2F91419A2F93449825E077
:1008A6002BB971E081E093E09A950000E9F78A950B
:1008B600D1F77A95B9F7439871E081E09AE09A9575
:1008C6000000E9F78A95D1F77A95B9F7439A71E06E
:1008D60081E09AE09A950000E9F78A95D1F77A9532
:1008E600B9F7449A2F91409A2F93449828E22BB94E
:1008F60071E081E093E09A950000E9F78A95D1F7D7
:100906007A95B9F7439871E081E09AE09A950000EC
:10091600E9F78A95D1F77A95B9F7439A71E081E0BC
:100926009AE09A950000E9F78A95D1F77A95B9F792
:10093600449A2F91419A409A2F93449825E02BB9D7
:1009460071E081E093E09A950000E9F78A95D1F786
:100956007A95B9F7439871E081E09AE09A9500009C
:10096600E9F78A95D1F77A95B9F7439A71E081E06C
:100976009AE09A950000E9F78A95D1F77A95B9F742
:10098600449A2F914198409841982F93449828E291
:100996002BB971E081E093E09A950000E9F78A951A
:1009A600D1F77A95B9F7439871E081E09AE09A9584
:1009B6000000E9F78A95D1F77A95B9F7439A71E07D
:1009C60081E09AE09A950000E9F78A95D1F77A9541
:1009D600B9F7449A2F91419A2F93449826E02BB960
:1009E60071E081E093E09A950000E9F78A95D1F7E6
:1009F6007A95B9F7439871E081E09AE09A950000FC
:100A0600E9F78A95D1F77A95B9F7439A71E081E0CB
:100A16009AE09A950000E9F78A95D1F77A95B9F7A1
:100A2600449A2F91409A2F93449828E22BB971E06B
:100A360081E093E09A950000E9F78A95D1F77A95D7
:100A4600B9F7439871E081E09AE09A950000E9F7DA
:100A56008A95D1F77A95B9F7439A71E081E09AE0E1
:100A66009A950000E9F78A95D1F77A95B9F7449AED
:100A76002F91419A409A2F93449826E02BB971E022
:100A860081E093E09A950000E9F78A95D1F77A9587
:100A9600B9F7439871E081E09AE09A950000E9F78A
:100AA6008A95D1F77A95B9F7439A71E081E09AE091
:100AB6009A950000E9F78A95D1F77A95B9F7449A9D
:100AC6002F914198409841982F9344982BE22BB947
:100AD60071E081E093E09A950000E9F78A95D1F7F5
:100AE6007A95B9F7439871E081E09AE09A9500000B
:100AF600E9F78A95D1F77A95B9F7439A71E081E0DB
:100B06009AE09A950000E9F78A95D1F77A95B9F7B0
:100B1600449A2F91419A2F93449820E02BB971E083
:100B260081E093E09A950000E9F78A95D1F77A95E6
:100B3600B9F7439871E081E09AE09A950000E9F7E9
:100B46008A95D1F77A95B9F7439A71E081E09AE0F0
:100B56009A950000E9F78A95D1F77A95B9F7449AFC
:100B66002F91409A2F9344982BE22BB971E081E0A4
:100B760093E09A950000E9F78A95D1F77A95B9F747
:100B8600439871E081E09AE09A950000E9F78A952A
:100B9600D1F77A95B9F7439A71E081E09AE09A9590
:100BA6000000E9F78A95D1F77A95B9F7449A2F911B
:100BB600419A409A2F93449820E02BB971E081E046
:100BC60093E09A950000E9F78A95D1F77A95B9F7F7
:100BD600439871E081E09AE09A950000E9F78A95DA
:100BE600D1F77A95B9F7439A71E081E09AE09A9540
:100BF6000000E9F78A95D1F77A95B9F7449A2F91CB
:100C06004198409841982F93449820E32BB971E07E
:100C160081E093E09A950000E9F78A95D1F77A95F5
:100C2600B9F7439871E081E09AE09A950000E9F7F8
:100C36008A95D1F77A95B9F7439A71E081E09AE0FF
:100C46009A950000E9F78A95D1F77A95B9F7449A0B
:100C56002F91419A2F93449821E72BB971E081E0B7
:100C660093E09A950000E9F78A95D1F77A95B9F756
:100C7600439871E081E09AE09A950000E9F78A9539
:100C8600D1F77A95B9F7439A71E081E09AE09A959F
:100C96000000E9F78A95D1F77A95B9F7449A2F912A
:100CA600409A2F93449820E32BB971E081E093E0BA
:100CB6009A950000E9F78A95D1F77A95B9F743989E
:100CC60071E081E09AE09A950000E9F78A95D1F7FC
:100CD6007A95B9F7439A71E081E09AE09A95000017
:100CE600E9F78A95D1F77A95B9F7449A2F91419AFF
:100CF600409A2F93449821E72BB971E081E093E065
:100D06009A950000E9F78A95D1F77A95B9F743984D
:100D160071E081E09AE09A950000E9F78A95D1F7AB
:100D26007A95B9F7439A71E081E09AE09A950000C6
:100D3600E9F78A95D1F77A95B9F7449A2F914198B0
:100D4600409841982F93449824E32BB971E081E0B1
:100D560093E09A950000E9F78A95D1F77A95B9F765
:100D6600439871E081E09AE09A950000E9F78A9548
:100D7600D1F77A95B9F7439A71E081E09AE09A95AE
:100D86000000E9F78A95D1F77A95B9F7449A2F9139
:100D9600419A2F9344982DE02BB971E081E093E0BE
:100DA6009A950000E9F78A95D1F77A95B9F74398AD
:100DB60071E081E09AE09A950000E9F78A95D1F70B
:100DC6007A95B9F7439A71E081E09AE09A95000026
:100DD600E9F78A95D1F77A95B9F7449A2F91409A0F
:100DE6002F93449824E32BB971E081E093E09A9520
:100DF6000000E9F78A95D1F77A95B9F7439871E03B
:100E060081E09AE09A950000E9F78A95D1F77A95FC
:100E1600B9F7439A71E081E09AE09A950000E9F704
:100E26008A95D1F77A95B9F7449A2F91419A409AC3
:100E36002F9344982DE02BB971E081E093E09A95C9
:100E46000000E9F78A95D1F77A95B9F7439871E0EA
:100E560081E09AE09A950000E9F78A95D1F77A95AC
:100E6600B9F7439A71E081E09AE09A950000E9F7B4
:100E76008A95D1F77A95B9F7449A2F914198409877
:100E860041982F93449828E32BB971E081E093E0D1
:100E96009A950000E9F78A95D1F77A95B9F74398BC
:100EA60071E081E09AE09A950000E9F78A95D1F71A
:100EB6007A95B9F7439A71E081E09AE09A95000035
:100EC600E9F78A95D1F77A95B9F7449A2F91419A1D
:100ED6002F93449823E32BB971E081E093E09A9530
:100EE6000000E9F78A95D1F77A95B9F7439871E04A
:100EF60081E09AE09A950000E9F78A95D1F77A950C
:100F0600B9F7439A71E081E09AE09A950000E9F713
:100F16008A95D1F77A95B9F7449A2F91409A2F93EB
:100F2600449828E32BB971E081E093E09A9500009C
:100F3600E9F78A95D1F77A95B9F7439871E081E098
:100F46009AE09A950000E9F78A95D1F77A95B9F76C
:100F5600439A71E081E09AE09A950000E9F78A9554
:100F6600D1F77A95B9F7449A2F91419A409A2F93DF
:100F7600449823E32BB971E081E093E09A95000051
:100F8600E9F78A95D1F77A95B9F7439871E081E048
:100F96009AE09A950000E9F78A95D1F77A95B9F71C
:100FA600439A71E081E09AE09A950000E9F78A9504
:100FB600D1F77A95B9F7449A2F914198409841987C
:100FC6002F9344982CE32BB971E081E093E09A9536
:100FD6000000E9F78A95D1F77A95B9F7439871E059
:100FE60081E09AE09A950000E9F78A95D1F77A951B
:100FF600B9F7439A71E081E09AE09A950000E9F723
:101006008A95D1F77A95B9F7449A2F91419A2F93F9
:10101600449828E02BB971E081E093E09A950000AE
:10102600E9F78A95D1F77A95B9F7439871E081E0A7
:101036009AE09A950000E9F78A95D1F77A95B9F77B
:10104600439A71E081E09AE09A950000E9F78A9563
:10105600D1F77A95B9F7449A2F91409A2F934498ED
:101066002CE32BB971E081E093E09A950000E9F753
:101076008A95D1F77A95B9F7439871E081E09AE0BD
:101086009A950000E9F78A95D1F77A95B9F7439AC8
:1010960071E081E09AE09A950000E9F78A95D1F728
:1010A6007A95B9F7449A2F91419A409A2F9344988A
:1010B60028E02BB971E081E093E09A950000E9F70A
:1010C6008A95D1F77A95B9F7439871E081E09AE06D
:1010D6009A950000E9F78A95D1F77A95B9F7439A78
:1010E60071E081E09AE09A950000E9F78A95D1F7D8
:1010F6007A95B9F7449A2F914198409841982F9341
:10110600449821E32BB971E081E093E09A950000C1
:10111600E9F78A95D1F77A95B9F7439871E081E0B6
:101126009AE09A950000E9F78A95D1F77A95B9F78A
:10113600439A71E081E09AE09A950000E9F78A9572
:10114600D1F77A95B9F7449A2F91419A2F934498FB
:1011560021E72BB971E081E093E09A950000E9F769
:101166008A95D1F77A95B9F7439871E081E09AE0CC
:101176009A950000E9F78A95D1F77A95B9F7439AD7
:1011860071E081E09AE09A950000E9F78A95D1F737
:101196007A95B9F7449A2F91409A2F93449821E370
:1011A6002BB971E081E093E09A950000E9F78A9502
:1011B600D1F77A95B9F7439871E081E09AE09A956C
:1011C6000000E9F78A95D1F77A95B9F7439A71E065
:1011D60081E09AE09A950000E9F78A95D1F77A9529
:1011E600B9F7449A2F91419A409A2F93449821E750
:1011F6002BB971E081E093E09A950000E9F78A95B2
:10120600D1F77A95B9F7439871E081E09AE09A951B
:101216000000E9F78A95D1F77A95B9F7439A71E014
:1012260081E09AE09A950000E9F78A95D1F77A95D8
:10123600B9F7449A2F914198409841982F93449832
:1012460025E32BB971E081E093E09A950000E9F778
:101256008A95D1F77A95B9F7439871E081E09AE0DB
:101266009A950000E9F78A95D1F77A95B9F7439AE6
:1012760071E081E09AE09A950000E9F78A95D1F746
:101286007A95B9F7449A2F91419A2F9344982DE075
:101296002BB971E081E093E09A950000E9F78A9511
:1012A600D1F77A95B9F7439871E081E09AE09A957B
:1012B6000000E9F78A95D1F77A95B9F7439A71E074
:1012C60081E09AE09A950000E9F78A95D1F77A9538
:1012D600B9F7449A2F91409A2F93449825E32BB956
:1012E60071E081E093E09A950000E9F78A95D1F7DD
:1012F6007A95B9F7439871E081E09AE09A950000F3
:10130600E9F78A95D1F77A95B9F7439A71E081E0C2
:101316009AE09A950000E9F78A95D1F77A95B9F798
:10132600449A2F91419A409A2F9344982DE02BB9D5
:1013360071E081E093E09A950000E9F78A95D1F78C
:101346007A95B9F7439871E081E09AE09A950000A2
:10135600E9F78A95D1F77A95B9F7439A71E081E072
:101366009AE09A950000E9F78A95D1F77A95B9F748
:10137600449A2F914198409841982F93449829E395
:101386002BB971E081E093E09A950000E9F78A9520
:10139600D1F77A95B9F7439871E081E09AE09A958A
:1013A6000000E9F78A95D1F77A95B9F7439A71E083
:1013B60081E09AE09A950000E9F78A95D1F77A9547
:1013C600B9F7449A2F91419A2F93449823E32BB966
:1013D60071E081E093E09A950000E9F78A95D1F7EC
:1013E6007A95B9F7439871E081E09AE09A95000002
:1013F600E9F78A95D1F77A95B9F7439A71E081E0D2
:101406009AE09A950000E9F78A95D1F77A95B9F7A7
:10141600449A2F91409A2F93449829E32BB971E06F
:1014260081E093E09A950000E9F78A95D1F77A95DD
:10143600B9F7439871E081E09AE09A950000E9F7E0
:101446008A95D1F77A95B9F7439A71E081E09AE0E7
:101456009A950000E9F78A95D1F77A95B9F7449AF3
:101466002F91419A409A2F93449823E32BB971E028
:1014760081E093E09A950000E9F78A95D1F77A958D
:10148600B9F7439871E081E09AE09A950000E9F790
:101496008A95D1F77A95B9F7439A71E081E09AE097
:1014A6009A950000E9F78A95D1F77A95B9F7449AA3
:1014B6002F914198409841982F9344982DE32BB94A
:1014C60071E081E093E09A950000E9F78A95D1F7FB
:1014D6007A95B9F7439871E081E09AE09A95000011
:1014E600E9F78A95D1F77A95B9F7439A71E081E0E1
:1014F6009AE09A950000E9F78A95D1F77A95B9F7B7
:10150600449A2F91419A2F93449828E02BB971E081
:1015160081E093E09A950000E9F78A95D1F77A95EC
:10152600B9F7439871E081E09AE09A950000E9F7EF
:101536008A95D1F77A95B9F7439A71E081E09AE0F6
:101546009A950000E9F78A95D1F77A95B9F7449A02
:101556002F91409A2F9344982DE32BB971E081E0A7
:1015660093E09A950000E9F78A95D1F77A95B9F74D
:10157600439871E081E09AE09A950000E9F78A9530
:10158600D1F77A95B9F7439A71E081E09AE09A9596
:101596000000E9F78A95D1F77A95B9F7449A2F9121
:1015A600419A409A2F93449828E02BB971E081E044
:1015B60093E09A950000E9F78A95D1F77A95B9F7FD
:1015C600439871E081E09AE09A950000E9F78A95E0
:1015D600D1F77A95B9F7439A71E081E09AE09A9546
:1015E6000000E9F78A95D1F77A95B9F7449A2F91D1
:1015F6004198409841982F93449820E42BB971E084
:1016060081E093E09A950000E9F78A95D1F77A95FB
:10161600B9F7439871E081E09AE09A950000E9F7FE
:101626008A95D1F77A95B9F7439A71E081E09AE005
:101636009A950000E9F78A95D1F77A95B9F7449A11
:101646002F91419A2F93449823E22BB971E081E0C0
:1016560093E09A950000E9F78A95D1F77A95B9F75C
:10166600439871E081E09AE09A950000E9F78A953F
:10167600D1F77A95B9F7439A71E081E09AE09A95A5
:101686000000E9F78A95D1F77A95B9F7449A2F9130
:10169600409A2F93449820E42BB971E081E093E0BF
:1016A6009A950000E9F78A95D1F77A95B9F74398A4
:1016B60071E081E09AE09A950000E9F78A95D1F702
:1016C6007A95B9F7439A71E081E09AE09A9500001D
:1016D600E9F78A95D1F77A95B9F7449A2F91419A05
:1016E600409A2F93449823E22BB971E081E093E06E
:1016F6009A950000E9F78A95D1F77A95B9F7439854
:1017060071E081E09AE09A950000E9F78A95D1F7B1
:101716007A95B9F7439A71E081E09AE09A950000CC
:10172600E9F78A95D1F77A95B9F7449A2F914198B6
:10173600409841982F93449824E42BB971E081E0B6
:1017460093E09A950000E9F78A95D1F77A95B9F76B
:10175600439871E081E09AE09A950000E9F78A954E
:10176600D1F77A95B9F7439A71E081E09AE09A95B4
:101776000000E9F78A95D1F77A95B9F7449A2F913F
:10178600419A2F9344982DE22BB971E081E093E0C2
:101796009A950000E9F78A95D1F77A95B9F74398B3
:1017A60071E081E09AE09A950000E9F78A95D1F711
:1017B6007A95B9F7439A71E081E09AE09A9500002C
:1017C600E9F78A95D1F77A95B9F7449A2F91409A15
:1017D6002F93449824E42BB971E081E093E09A9525
:1017E6000000E9F78A95D1F77A95B9F7439871E041
:1017F60081E09AE09A950000E9F78A95D1F77A9503
:10180600B9F7439A71E081E09AE09A950000E9F70A
:101816008A95D1F77A95B9F7449A2F91419A409AC9
:101826002F9344982DE22BB971E081E093E09A95CD
:101836000000E9F78A95D1F77A95B9F7439871E0F0
:1018460081E09AE09A950000E9F78A95D1F77A95B2
:10185600B9F7439A71E081E09AE09A950000E9F7BA
:101866008A95D1F77A95B9F7449A2F91419840987D
:1018760041982F93449828E42BB971E081E093E0D6
:101886009A950000E9F78A95D1F77A95B9F74398C2
:1018960071E081E09AE09A950000E9F78A95D1F720
:1018A6007A95B9F7439A71E081E09AE09A9500003B
:1018B600E9F78A95D1F77A95B9F7449A2F91419A23
:1018C6002F93449826E22BB971E081E093E09A9534
:1018D6000000E9F78A95D1F77A95B9F7439871E050
:1018E60081E09AE09A950000E9F78A95D1F77A9512
:1018F600B9F7439A71E081E09AE09A950000E9F71A
:101906008A95D1F77A95B9F7449A2F91409A2F93F1
:10191600449828E42BB971E081E093E09A950000A1
:10192600E9F78A95D1F77A95B9F7439871E081E09E
:101936009AE09A950000E9F78A95D1F77A95B9F772
:10194600439A71E081E09AE09A950000E9F78A955A
:10195600D1F77A95B9F7449A2F91419A409A2F93E5
:10196600449826E22BB971E081E093E09A95000055
:10197600E9F78A95D1F77A95B9F7439871E081E04E
:101986009AE09A950000E9F78A95D1F77A95B9F722
:10199600439A71E081E09AE09A950000E9F78A950A
:1019A600D1F77A95B9F7449A2F9141984098419882
:1019B6002F9344982CE42BB971E081E093E09A953B
:1019C6000000E9F78A95D1F77A95B9F7439871E05F
:1019D60081E09AE09A950000E9F78A95D1F77A9521
:1019E600B9F7439A71E081E09AE09A950000E9F729
:1019F6008A95D1F77A95B9F7449A2F91419A2F9300
:101A0600449820E02BB971E081E093E09A950000BC
:101A1600E9F78A95D1F77A95B9F7439871E081E0AD
:101A26009AE09A950000E9F78A95D1F77A95B9F781
:101A3600439A71E081E09AE09A950000E9F78A9569
:101A4600D1F77A95B9F7449A2F91409A2F934498F3
:101A56002CE42BB971E081E093E09A950000E9F758
:101A66008A95D1F77A95B9F7439871E081E09AE0C3
:101A76009A950000E9F78A95D1F77A95B9F7439ACE
:101A860071E081E09AE09A950000E9F78A95D1F72E
:101A96007A95B9F7449A2F91419A409A2F93449890
:101AA60020E02BB971E081E093E09A950000E9F718
:101AB6008A95D1F77A95B9F7439871E081E09AE073
:101AC6009A950000E9F78A95D1F77A95B9F7439A7E
:101AD60071E081E09AE09A950000E9F78A95D1F7DE
:101AE6007A95B9F7449A2F914198409841982F9347
:101AF600449821E42BB971E081E093E09A950000C7
:101B0600E9F78A95D1F77A95B9F7439871E081E0BC
:101B16009AE09A950000E9F78A95D1F77A95B9F790
:101B2600439A71E081E09AE09A950000E9F78A9578
:101B3600D1F77A95B9F7449A2F91419A2F93449801
:101B460023E22BB971E081E093E09A950000E9F772
:101B56008A95D1F77A95B9F7439871E081E09AE0D2
:101B66009A950000E9F78A95D1F77A95B9F7439ADD
:101B760071E081E09AE09A950000E9F78A95D1F73D
:101B86007A95B9F7449A2F91409A2F93449821E475
:101B96002BB971E081E093E09A950000E9F78A9508
:101BA600D1F77A95B9F7439871E081E09AE09A9572
:101BB6000000E9F78A95D1F77A95B9F7439A71E06B
:101BC60081E09AE09A950000E9F78A95D1F77A952F
:101BD600B9F7449A2F91419A409A2F93449823E259
:101BE6002BB971E081E093E09A950000E9F78A95B8
:101BF600D1F77A95B9F7439871E081E09AE09A9522
:101C06000000E9F78A95D1F77A95B9F7439A71E01A
:101C160081E09AE09A950000E9F78A95D1F77A95DE
:101C2600B9F7449A2F914198409841982F93449838
:101C360025E42BB971E081E093E09A950000E9F77D
:101C46008A95D1F77A95B9F7439871E081E09AE0E1
:101C56009A950000E9F78A95D1F77A95B9F7439AEC
:101C660071E081E09AE09A950000E9F78A95D1F74C
:101C76007A95B9F7449A2F91419A2F9344982DE279
:101C86002BB971E081E093E09A950000E9F78A9517
:101C9600D1F77A95B9F7439871E081E09AE09A9581
:101CA6000000E9F78A95D1F77A95B9F7439A71E07A
:101CB60081E09AE09A950000E9F78A95D1F77A953E
:101CC600B9F7449A2F91409A2F93449825E42BB95B
:101CD60071E081E093E09A950000E9F78A95D1F7E3
:101CE6007A95B9F7439871E081E09AE09A950000F9
:101CF600E9F78A95D1F77A95B9F7439A71E081E0C9
:101D06009AE09A950000E9F78A95D1F77A95B9F79E
:101D1600449A2F91419A409A2F9344982DE22BB9D9
:101D260071E081E093E09A950000E9F78A95D1F792
:101D36007A95B9F7439871E081E09AE09A950000A8
:101D4600E9F78A95D1F77A95B9F7439A71E081E078
:101D56009AE09A950000E9F78A95D1F77A95B9F74E
:101D6600449A2F914198409841982F93449829E49A
:101D76002BB971E081E093E09A950000E9F78A9526
:101D8600D1F77A95B9F7439871E081E09AE09A9590
:101D96000000E9F78A95D1F77A95B9F7439A71E089
:101DA60081E09AE09A950000E9F78A95D1F77A954D
:101DB600B9F7449A2F91419A2F93449826E22BB96A
:101DC60071E081E093E09A950000E9F78A95D1F7F2
:101DD6007A95B9F7439871E081E09AE09A95000008
:101DE600E9F78A95D1F77A95B9F7439A71E081E0D8
:101DF6009AE09A950000E9F78A95D1F77A95B9F7AE
:101E0600449A2F91409A2F93449829E42BB971E074
:101E160081E093E09A950000E9F78A95D1F77A95E3
:101E2600B9F7439871E081E09AE09A950000E9F7E6
:101E36008A95D1F77A95B9F7439A71E081E09AE0ED
:101E46009A950000E9F78A95D1F77A95B9F7449AF9
:101E56002F91419A409A2F93449826E22BB971E02C
:101E660081E093E09A950000E9F78A95D1F77A9593
:101E7600B9F7439871E081E09AE09A950000E9F796
:101E86008A95D1F77A95B9F7439A71E081E09AE09D
:101E96009A950000E9F78A95D1F77A95B9F7449AA9
:101EA6002F914198409841982F9344982DE42BB94F
:101EB60071E081E093E09A950000E9F78A95D1F701
:101EC6007A95B9F7439871E081E09AE09A95000017
:101ED600E9F78A95D1F77A95B9F7439A71E081E0E7
:101EE6009AE09A950000E9F78A95D1F77A95B9F7BD
:101EF600449A2F91419A2F93449820E02BB971E090
:101F060081E093E09A950000E9F78A95D1F77A95F2
:101F1600B9F7439871E081E09AE09A950000E9F7F5
:101F26008A95D1F77A95B9F7439A71E081E09AE0FC
:101F36009A950000E9F78A95D1F77A95B9F7449A08
:101F46002F91409A2F9344982DE42BB971E081E0AC
:101F560093E09A950000E9F78A95D1F77A95B9F753
:101F6600439871E081E09AE09A950000E9F78A9536
:101F7600D1F77A95B9F7439A71E081E09AE09A959C
:101F86000000E9F78A95D1F77A95B9F7449A2F9127
:101F9600419A409A2F93449820E02BB971E081E052
:101FA60093E09A950000E9F78A95D1F77A95B9F703
:101FB600439871E081E09AE09A950000E9F78A95E6
:101FC600D1F77A95B9F7439A71E081E09AE09A954C
:101FD6000000E9F78A95D1F77A95B9F7449A2F91D7
:101FE6004198409841982F93449820E52BB971E089
:101FF60081E093E09A950000E9F78A95D1F77A9502
:10200600B9F7439871E081E09AE09A950000E9F704
:102016008A95D1F77A95B9F7439A71E081E09AE00B
:102026009A950000E9F78A95D1F77A95B9F7449A17
:102036002F91419A2F9344982FE52BB971E081E0B7
:1020460093E09A950000E9F78A95D1F77A95B9F762
:10205600439871E081E09AE09A950000E9F78A9545
:10206600D1F77A95B9F7439A71E081E09AE09A95AB
:102076000000E9F78A95D1F77A95B9F7449A2F9136
:10208600409A2F93449820E52BB971E081E093E0C4
:102096009A950000E9F78A95D1F77A95B9F74398AA
:1020A60071E081E09AE09A950000E9F78A95D1F708
:1020B6007A95B9F7439A71E081E09AE09A95000023
:1020C600E9F78A95D1F77A95B9F7449A2F91419A0B
:1020D600409A2F9344982FE52BB971E081E093E065
:1020E6009A950000E9F78A95D1F77A95B9F743985A
:1020F60071E081E09AE09A950000E9F78A95D1F7B8
:102106007A95B9F7439A71E081E09AE09A950000D2
:10211600E9F78A95D1F77A95B9F7449A2F914198BC
:10212600409841982F93449824E52BB971E081E0BB
:1021360093E09A950000E9F78A95D1F77A95B9F771
:10214600439871E081E09AE09A950000E9F78A9554
:10215600D1F77A95B9F7439A71E081E09AE09A95BA
:102166000000E9F78A95D1F77A95B9F7449A2F9145
:10217600419A2F93449829E92BB971E081E093E0C5
:102186009A950000E9F78A95D1F77A95B9F74398B9
:1021960071E081E09AE09A950000E9F78A95D1F717
:1021A6007A95B9F7439A71E081E09AE09A95000032
:1021B600E9F78A95D1F77A95B9F7449A2F91409A1B
:1021C6002F93449824E52BB971E081E093E09A952A
:1021D6000000E9F78A95D1F77A95B9F7439871E047
:1021E60081E09AE09A950000E9F78A95D1F77A9509
:1021F600B9F7439A71E081E09AE09A950000E9F711
:102206008A95D1F77A95B9F7449A2F91419A409ACF
:102216002F93449829E92BB971E081E093E09A95D0
:102226000000E9F78A95D1F77A95B9F7439871E0F6
:1022360081E09AE09A950000E9F78A95D1F77A95B8
:10224600B9F7439A71E081E09AE09A950000E9F7C0
:102256008A95D1F77A95B9F7449A2F914198409883
:1022660041982F93449828E52BB971E081E093E0DB
:102276009A950000E9F78A95D1F77A95B9F74398C8
:1022860071E081E09AE09A950000E9F78A95D1F726
:102296007A95B9F7439A71E081E09AE09A95000041
:1022A600E9F78A95D1F77A95B9F7449A2F91419A29
:1022B6002F9344982FE52BB971E081E093E09A952E
:1022C6000000E9F78A95D1F77A95B9F7439871E056
:1022D60081E09AE09A950000E9F78A95D1F77A9518
:1022E600B9F7439A71E081E09AE09A950000E9F720
:1022F6008A95D1F77A95B9F7449A2F91409A2F93F8
:10230600449828E52BB971E081E093E09A950000A6
:10231600E9F78A95D1F77A95B9F7439871E081E0A4
:102326009AE09A950000E9F78A95D1F77A95B9F778
:10233600439A71E081E09AE09A950000E9F78A9560
:10234600D1F77A95B9F7449A2F91419A409A2F93EB
:1023560044982FE52BB971E081E093E09A9500004F
:10236600E9F78A95D1F77A95B9F7439871E081E054
:102376009AE09A950000E9F78A95D1F77A95B9F728
:10238600439A71E081E09AE09A950000E9F78A9510
:10239600D1F77A95B9F7449A2F9141984098419888
:1023A6002F9344982DE52BB971E081E093E09A953F
:1023B6000000E9F78A95D1F77A95B9F7439871E065
:1023C60081E09AE09A950000E9F78A95D1F77A9527
:1023D600B9F7439A71E081E09AE09A950000E9F72F
:1023E6008A95D1F77A95B9F7449A2F91419A2F9306
:1023F600449824E92BB971E081E093E09A950000B6
:10240600E9F78A95D1F77A95B9F7439871E081E0B3
:102416009AE09A950000E9F78A95D1F77A95B9F787
:10242600439A71E081E09AE09A950000E9F78A956F
:10243600D1F77A95B9F7449A2F91409A2F934498F9
:102446002DE52BB971E081E093E09A950000E9F75C
:102456008A95D1F77A95B9F7439871E081E09AE0C9
:102466009A950000E9F78A95D1F77A95B9F7439AD4
:1024760071E081E09AE09A950000E9F78A95D1F734
:102486007A95B9F7449A2F91419A409A2F93449896
:1024960024E92BB971E081E093E09A950000E9F711
:1024A6008A95D1F77A95B9F7439871E081E09AE079
:1024B6009A950000E9F78A95D1F77A95B9F7439A84
:1024C60071E081E09AE09A950000E9F78A95D1F7E4
:1024D6007A95B9F7449A2F914198409841982F934D
:1024E600449821E52BB971E081E093E09A950000CC
:1024F600E9F78A95D1F77A95B9F7439871E081E0C3
:102506009AE09A950000E9F78A95D1F77A95B9F796
:10251600439A71E081E09AE09A950000E9F78A957E
:10252600D1F77A95B9F7449A2F91419A2F93449807
:102536002FE52BB971E081E093E09A950000E9F769
:102546008A95D1F77A95B9F7439871E081E09AE0D8
:102556009A950000E9F78A95D1F77A95B9F7439AE3
:1025660071E081E09AE09A950000E9F78A95D1F743
:102576007A95B9F7449A2F91409A2F93449821E57A
:102586002BB971E081E093E09A950000E9F78A950E
:10259600D1F77A95B9F7439871E081E09AE09A9578
:1025A6000000E9F78A95D1F77A95B9F7439A71E071
:1025B60081E09AE09A950000E9F78A95D1F77A9535
:1025C600B9F7449A2F91419A409A2F9344982FE550
:1025D6002BB971E081E093E09A950000E9F78A95BE
:1025E600D1F77A95B9F7439871E081E09AE09A9528
:1025F6000000E9F78A95D1F77A95B9F7439A71E021
:1026060081E09AE09A950000E9F78A95D1F77A95E4
:10261600B9F7449A2F914198409841982F9344983E
:1026260025E52BB971E081E093E09A950000E9F782
:102636008A95D1F77A95B9F7439871E081E09AE0E7
:102646009A950000E9F78A95D1F77A95B9F7439AF2
:1026560071E081E09AE09A950000E9F78A95D1F752
:102666007A95B9F7449A2F91419A2F93449829E97C
:102676002BB971E081E093E09A950000E9F78A951D
:10268600D1F77A95B9F7439871E081E09AE09A9587
:102696000000E9F78A95D1F77A95B9F7439A71E080
:1026A60081E09AE09A950000E9F78A95D1F77A9544
:1026B600B9F7449A2F91409A2F93449825E52BB960
:1026C60071E081E093E09A950000E9F78A95D1F7E9
:1026D6007A95B9F7439871E081E09AE09A950000FF
:1026E600E9F78A95D1F77A95B9F7439A71E081E0CF
:1026F6009AE09A950000E9F78A95D1F77A95B9F7A5
:10270600449A2F91419A409A2F93449829E92BB9DC
:1027160071E081E093E09A950000E9F78A95D1F798
:102726007A95B9F7439871E081E09AE09A950000AE
:10273600E9F78A95D1F77A95B9F7439A71E081E07E
:102746009AE09A950000E9F78A95D1F77A95B9F754
:10275600449A2F914198409841982F93449829E59F
:102766002BB971E081E093E09A950000E9F78A952C
:10277600D1F77A95B9F7439871E081E09AE09A9596
:102786000000E9F78A95D1F77A95B9F7439A71E08F
:1027960081E09AE09A950000E9F78A95D1F77A9553
:1027A600B9F7449A2F91419A2F9344982FE52BB964
:1027B60071E081E093E09A950000E9F78A95D1F7F8
:1027C6007A95B9F7439871E081E09AE09A9500000E
:1027D600E9F78A95D1F77A95B9F7439A71E081E0DE
:1027E6009AE09A950000E9F78A95D1F77A95B9F7B4
:1027F600449A2F91409A2F93449829E52BB971E07A
:1028060081E093E09A950000E9F78A95D1F77A95E9
:10281600B9F7439871E081E09AE09A950000E9F7EC
:102826008A95D1F77A95B9F7439A71E081E09AE0F3
:102836009A950000E9F78A95D1F77A95B9F7449AFF
:102846002F91419A409A2F9344982FE52BB971E026
:1028560081E093E09A950000E9F78A95D1F77A9599
:10286600B9F7439871E081E09AE09A950000E9F79C
:102876008A95D1F77A95B9F7439A71E081E09AE0A3
:102886009A950000E9F78A95D1F77A95B9F7449AAF
:102896002F914198409841982F9344982CE52BB955
:1028A60071E081E093E09A950000E9F78A95D1F707
:1028B6007A95B9F7439871E081E09AE09A9500001D
:1028C600E9F78A95D1F77A95B9F7439A71E081E0ED
:1028D6009AE09A950000E9F78A95D1F77A95B9F7C3
:1028E600449A2F91419A2F93449824E92BB971E089
:1028F60081E093E09A950000E9F78A95D1F77A95F9
:10290600B9F7439871E081E09AE09A950000E9F7FB
:102916008A95D1F77A95B9F7439A71E081E09AE002
:102926009A950000E9F78A95D1F77A95B9F7449A0E
:102936002F91409A2F9344982CE52BB971E081E0B2
:1029460093E09A950000E9F78A95D1F77A95B9F759
:10295600439871E081E09AE09A950000E9F78A953C
:10296600D1F77A95B9F7439A71E081E09AE09A95A2
:102976000000E9F78A95D1F77A95B9F7449A2F912D
:10298600419A409A2F93449824E92BB971E081E04B
:1029960093E09A950000E9F78A95D1F77A95B9F709
:1029A600439871E081E09AE09A950000E9F78A95EC
:1029B600D1F77A95B9F7439A71E081E09AE09A9552
:1029C6000000E9F78A95D1F77A95B9F7449A2F91DD
:1029D6004198409841982F93449820E62BB971E08E
:1029E60081E093E09A950000E9F78A95D1F77A9508
:1029F600B9F7439871E081E09AE09A950000E9F70B
:102A06008A95D1F77A95B9F7439A71E081E09AE011
:102A16009A950000E9F78A95D1F77A95B9F7449A1D
:102A26002F91419A2F93449825E02BB971E081E0CC
:102A360093E09A950000E9F78A95D1F77A95B9F768
:102A4600439871E081E09AE09A950000E9F78A954B
:102A5600D1F77A95B9F7439A71E081E09AE09A95B1
:102A66000000E9F78A95D1F77A95B9F7449A2F913C
:102A7600409A2F93449820E62BB971E081E093E0C9
:102A86009A950000E9F78A95D1F77A95B9F74398B0
:102A960071E081E09AE09A950000E9F78A95D1F70E
:102AA6007A95B9F7439A71E081E09AE09A95000029
:102AB600E9F78A95D1F77A95B9F7449A2F91419A11
:102AC600409A2F93449825E02BB971E081E093E07A
:102AD6009A950000E9F78A95D1F77A95B9F7439860
:102AE60071E081E09AE09A950000E9F78A95D1F7BE
:102AF6007A95B9F7439A71E081E09AE09A950000D9
:102B0600E9F78A95D1F77A95B9F7449A2F914198C2
:102B1600409841982F93449824E62BB971E081E0C0
:102B260093E09A950000E9F78A95D1F77A95B9F777
:102B3600439871E081E09AE09A950000E9F78A955A
:102B4600D1F77A95B9F7439A71E081E09AE09A95C0
:102B56000000E9F78A95D1F77A95B9F7449A2F914B
:102B6600419A2F93449825E02BB971E081E093E0D8
:102B76009A950000E9F78A95D1F77A95B9F74398BF
:102B860071E081E09AE09A950000E9F78A95D1F71D
:102B96007A95B9F7439A71E081E09AE09A95000038
:102BA600E9F78A95D1F77A95B9F7449A2F91409A21
:102BB6002F93449824E62BB971E081E093E09A952F
:102BC6000000E9F78A95D1F77A95B9F7439871E04D
:102BD60081E09AE09A950000E9F78A95D1F77A950F
:102BE600B9F7439A71E081E09AE09A950000E9F717
:102BF6008A95D1F77A95B9F7449A2F91419A409AD6
:102C06002F93449825E02BB971E081E093E09A95E3
:102C16000000E9F78A95D1F77A95B9F7439871E0FC
:102C260081E09AE09A950000E9F78A95D1F77A95BE
:102C3600B9F7439A71E081E09AE09A950000E9F7C6
:102C46008A95D1F77A95B9F7449A2F914198409889
:102C560041982F93449828E62BB971E081E093E0E0
:102C66009A950000E9F78A95D1F77A95B9F74398CE
:102C760071E081E09AE09A950000E9F78A95D1F72C
:102C86007A95B9F7439A71E081E09AE09A95000047
:102C9600E9F78A95D1F77A95B9F7449A2F91419A2F
:102CA6002F93449825E02BB971E081E093E09A9543
:102CB6000000E9F78A95D1F77A95B9F7439871E05C
:102CC60081E09AE09A950000E9F78A95D1F77A951E
:102CD600B9F7439A71E081E09AE09A950000E9F726
:102CE6008A95D1F77A95B9F7449A2F91409A2F93FE
:102CF600449828E62BB971E081E093E09A950000AC
:102D0600E9F78A95D1F77A95B9F7439871E081E0AA
:102D16009AE09A950000E9F78A95D1F77A95B9F77E
:102D2600439A71E081E09AE09A950000E9F78A9566
:102D3600D1F77A95B9F7449A2F91419A409A2F93F1
:102D4600449825E02BB971E081E093E09A95000064
:102D5600E9F78A95D1F77A95B9F7439871E081E05A
:102D66009AE09A950000E9F78A95D1F77A95B9F72E
:102D7600439A71E081E09AE09A950000E9F78A9516
:102D8600D1F77A95B9F7449A2F914198409841988E
:102D96002F9344982CE62BB971E081E093E09A9545
:102DA6000000E9F78A95D1F77A95B9F7439871E06B
:102DB60081E09AE09A950000E9F78A95D1F77A952D
:102DC600B9F7439A71E081E09AE09A950000E9F735
:102DD6008A95D1F77A95B9F7449A2F91419A2F930C
:102DE600449827E02BB971E081E093E09A950000C2
:102DF600E9F78A95D1F77A95B9F7439871E081E0BA
:102E06009AE09A950000E9F78A95D1F77A95B9F78D
:102E1600439A71E081E09AE09A950000E9F78A9575
:102E2600D1F77A95B9F7449A2F91409A2F934498FF
:102E36002CE62BB971E081E093E09A950000E9F762
:102E46008A95D1F77A95B9F7439871E081E09AE0CF
:102E56009A950000E9F78A95D1F77A95B9F7439ADA
:102E660071E081E09AE09A950000E9F78A95D1F73A
:102E76007A95B9F7449A2F91419A409A2F9344989C
:102E860027E02BB971E081E093E09A950000E9F71D
:102E96008A95D1F77A95B9F7439871E081E09AE07F
:102EA6009A950000E9F78A95D1F77A95B9F7439A8A
:102EB60071E081E09AE09A950000E9F78A95D1F7EA
:102EC6007A95B9F7449A2F914198409841982F9353
:102ED600449821E62BB971E081E093E09A950000D1
:102EE600E9F78A95D1F77A95B9F7439871E081E0C9
:102EF6009AE09A950000E9F78A95D1F77A95B9F79D
:102F0600439A71E081E09AE09A950000E9F78A9584
:102F1600D1F77A95B9F7449A2F91419A2F9344980D
:102F260025E02BB971E081E093E09A950000E9F77E
:102F36008A95D1F77A95B9F7439871E081E09AE0DE
:102F46009A950000E9F78A95D1F77A95B9F7439AE9
:102F560071E081E09AE09A950000E9F78A95D1F749
:102F66007A95B9F7449A2F91409A2F93449821E67F
:102F76002BB971E081E093E09A950000E9F78A9514
:102F8600D1F77A95B9F7439871E081E09AE09A957E
:102F96000000E9F78A95D1F77A95B9F7439A71E077
:102FA60081E09AE09A950000E9F78A95D1F77A953B
:102FB600B9F7449A2F91419A409A2F93449825E065
:102FC6002BB971E081E093E09A950000E9F78A95C4
:102FD600D1F77A95B9F7439871E081E09AE09A952E
:102FE6000000E9F78A95D1F77A95B9F7439A71E027
:102FF60081E09AE09A950000E9F78A95D1F77A95EB
:10300600B9F7449A2F914198409841982F93449844
:1030160025E62BB971E081E093E09A950000E9F787
:103026008A95D1F77A95B9F7439871E081E09AE0ED
:103036009A950000E9F78A95D1F77A95B9F7439AF8
:1030460071E081E09AE09A950000E9F78A95D1F758
:103056007A95B9F7449A2F91419A2F93449825E08F
:103066002BB971E081E093E09A950000E9F78A9523
:10307600D1F77A95B9F7439871E081E09AE09A958D
:103086000000E9F78A95D1F77A95B9F7439A71E086
:1030960081E09AE09A950000E9F78A95D1F77A954A
:1030A600B9F7449A2F91409A2F93449825E62BB965
:1030B60071E081E093E09A950000E9F78A95D1F7EF
:1030C6007A95B9F7439871E081E09AE09A95000005
:1030D600E9F78A95D1F77A95B9F7439A71E081E0D5
:1030E6009AE09A950000E9F78A95D1F77A95B9F7AB
:1030F600449A2F91419A409A2F93449825E02BB9F0
:1031060071E081E093E09A950000E9F78A95D1F79E
:103116007A95B9F7439871E081E09AE09A950000B4
:10312600E9F78A95D1F77A95B9F7439A71E081E084
:103136009AE09A950000E9F78A95D1F77A95B9F75A
:10314600449A2F914198409841982F93449829E6A4
:103156002BB971E081E093E09A950000E9F78A9532
:10316600D1F77A95B9F7439871E081E09AE09A959C
:103176000000E9F78A95D1F77A95B9F7439A71E095
:1031860081E09AE09A950000E9F78A95D1F77A9559
:10319600B9F7449A2F91419A2F93449825E02BB979
:1031A60071E081E093E09A950000E9F78A95D1F7FE
:1031B6007A95B9F7439871E081E09AE09A95000014
:1031C600E9F78A95D1F77A95B9F7439A71E081E0E4
:1031D6009AE09A950000E9F78A95D1F77A95B9F7BA
:1031E600449A2F91409A2F93449829E62BB971E07F
:1031F60081E093E09A950000E9F78A95D1F77A95F0
:10320600B9F7439871E081E09AE09A950000E9F7F2
:103216008A95D1F77A95B9F7439A71E081E09AE0F9
:103226009A950000E9F78A95D1F77A95B9F7449A05
:103236002F91419A409A2F93449825E02BB971E03B
:1032460081E093E09A950000E9F78A95D1F77A959F
:10325600B9F7439871E081E09AE09A950000E9F7A2
:103266008A95D1F77A95B9F7439A71E081E09AE0A9
:103276009A950000E9F78A95D1F77A95B9F7449AB5
:103286002F914198409841982F9344982DE62BB959
:1032960071E081E093E09A950000E9F78A95D1F70D
:1032A6007A95B9F7439871E081E09AE09A95000023
:1032B600E9F78A95D1F77A95B9F7439A71E081E0F3
:1032C6009AE09A950000E9F78A95D1F77A95B9F7C9
:1032D600449A2F91419A2F93449827E02BB971E095
:1032E60081E093E09A950000E9F78A95D1F77A95FF
:1032F600B9F7439871E081E09AE09A950000E9F702
:103306008A95D1F77A95B9F7439A71E081E09AE008
:103316009A950000E9F78A95D1F77A95B9F7449A14
:103326002F91409A2F9344982DE62BB971E081E0B6
:1033360093E09A950000E9F78A95D1F77A95B9F75F
:10334600439871E081E09AE09A950000E9F78A9542
:10335600D1F77A95B9F7439A71E081E09AE09A95A8
:103366000000E9F78A95D1F77A95B9F7449A2F9133
:10337600419A409A2F93449827E02BB971E081E057
:1033860093E09A950000E9F78A95D1F77A95B9F70F
:10339600439871E081E09AE09A950000E9F78A95F2
:1033A600D1F77A95B9F7439A71E081E09AE09A9558
:1033B6000000E9F78A95D1F77A95B9F7449A2F91E3
:1033C6004198409841982F93449820E72BB971E093
:1033D60081E093E09A950000E9F78A95D1F77A950E
:1033E600B9F7439871E081E09AE09A950000E9F711
:1033F6008A95D1F77A95B9F7439A71E081E09AE018
:103406009A950000E9F78A95D1F77A95B9F7449A23
:103416002F91419A2F93449822E02BB971E081E0D5
:1034260093E09A950000E9F78A95D1F77A95B9F76E
:10343600439871E081E09AE09A950000E9F78A9551
:10344600D1F77A95B9F7439A71E081E09AE09A95B7
:103456000000E9F78A95D1F77A95B9F7449A2F9142
:10346600409A2F93449820E72BB971E081E093E0CE
:103476009A950000E9F78A95D1F77A95B9F74398B6
:1034860071E081E09AE09A950000E9F78A95D1F714
:103496007A95B9F7439A71E081E09AE09A9500002F
:1034A600E9F78A95D1F77A95B9F7449A2F91419A17
:1034B600409A2F93449822E02BB971E081E093E083
:1034C6009A950000E9F78A95D1F77A95B9F7439866
:1034D60071E081E09AE09A950000E9F78A95D1F7C4
:1034E6007A95B9F7439A71E081E09AE09A950000DF
:1034F600E9F78A95D1F77A95B9F7449A2F914198C9
:10350600409841982F93449824E72BB971E081E0C5
:1035160093E09A950000E9F78A95D1F77A95B9F77D
:10352600439871E081E09AE09A950000E9F78A9560
:10353600D1F77A95B9F7439A71E081E09AE09A95C6
:103546000000E9F78A95D1F77A95B9F7449A2F9151
:10355600419A2F93449822E02BB971E081E093E0E1
:103566009A950000E9F78A95D1F77A95B9F74398C5
:1035760071E081E09AE09A950000E9F78A95D1F723
:103586007A95B9F7439A71E081E09AE09A9500003E
:10359600E9F78A95D1F77A95B9F7449A2F91409A27
:1035A6002F93449824E72BB971E081E093E09A9534
:1035B6000000E9F78A95D1F77A95B9F7439871E053
:1035C60081E09AE09A950000E9F78A95D1F77A9515
:1035D600B9F7439A71E081E09AE09A950000E9F71D
:1035E6008A95D1F77A95B9F7449A2F91419A409ADC
:1035F6002F93449822E02BB971E081E093E09A95ED
:103606000000E9F78A95D1F77A95B9F7439871E002
:1036160081E09AE09A950000E9F78A95D1F77A95C4
:10362600B9F7439A71E081E09AE09A950000E9F7CC
:103636008A95D1F77A95B9F7449A2F91419840988F
:1036460041982F93449828E72BB971E081E093E0E5
:103656009A950000E9F78A95D1F77A95B9F74398D4
:1036660071E081E09AE09A950000E9F78A95D1F732
:103676007A95B9F7439A71E081E09AE09A9500004D
:10368600E9F78A95D1F77A95B9F7449A2F91419A35
:103696002F93449822E02BB971E081E093E09A954C
:1036A6000000E9F78A95D1F77A95B9F7439871E062
:1036B60081E09AE09A950000E9F78A95D1F77A9524
:1036C600B9F7439A71E081E09AE09A950000E9F72C
:1036D6008A95D1F77A95B9F7449A2F91409A2F9304
:1036E600449828E72BB971E081E093E09A950000B1
:1036F600E9F78A95D1F77A95B9F7439871E081E0B1
:103706009AE09A950000E9F78A95D1F77A95B9F784
:10371600439A71E081E09AE09A950000E9F78A956C
:10372600D1F77A95B9F7449A2F91419A409A2F93F7
:10373600449822E02BB971E081E093E09A9500006D
:10374600E9F78A95D1F77A95B9F7439871E081E060
:103756009AE09A950000E9F78A95D1F77A95B9F734
:10376600439A71E081E09AE09A950000E9F78A951C
:10377600D1F77A95B9F7449A2F9141984098419894
:103786002F9344982CE72BB971E081E093E09A954A
:103796000000E9F78A95D1F77A95B9F7439871E071
:1037A60081E09AE09A950000E9F78A95D1F77A9533
:1037B600B9F7439A71E081E09AE09A950000E9F73B
:1037C6008A95D1F77A95B9F7449A2F91419A2F9312
:1037D600449822E02BB971E081E093E09A950000CD
:1037E600E9F78A95D1F77A95B9F7439871E081E0C0
:1037F6009AE09A950000E9F78A95D1F77A95B9F794
:10380600439A71E081E09AE09A950000E9F78A957B
:10381600D1F77A95B9F7449A2F91409A2F93449805
:103826002CE72BB971E081E093E09A950000E9F767
:103836008A95D1F77A95B9F7439871E081E09AE0D5
:103846009A950000E9F78A95D1F77A95B9F7439AE0
:1038560071E081E09AE09A950000E9F78A95D1F740
:103866007A95B9F7449A2F91419A409A2F934498A2
:1038760022E02BB971E081E093E09A950000E9F728
:103886008A95D1F77A95B9F7439871E081E09AE085
:103896009A950000E9F78A95D1F77A95B9F7439A90
:1038A60071E081E09AE09A950000E9F78A95D1F7F0
:1038B6007A95B9F7449A2F914198409841982F9359
:1038C600449821E72BB971E081E093E09A950000D6
:1038D600E9F78A95D1F77A95B9F7439871E081E0CF
:1038E6009AE09A950000E9F78A95D1F77A95B9F7A3
:1038F600439A71E081E09AE09A950000E9F78A958B
:10390600D1F77A95B9F7449A2F91419A2F93449813
:1039160022E02BB971E081E093E09A950000E9F787
:103926008A95D1F77A95B9F7439871E081E09AE0E4
:103936009A950000E9F78A95D1F77A95B9F7439AEF
:1039460071E081E09AE09A950000E9F78A95D1F74F
:103956007A95B9F7449A2F91409A2F93449821E784
:103966002BB971E081E093E09A950000E9F78A951A
:10397600D1F77A95B9F7439871E081E09AE09A9584
:103986000000E9F78A95D1F77A95B9F7439A71E07D
:1039960081E09AE09A950000E9F78A95D1F77A9541
:1039A600B9F7449A2F91419A409A2F93449822E06E
:1039B6002BB971E081E093E09A950000E9F78A95CA
:1039C600D1F77A95B9F7439871E081E09AE09A9534
:1039D6000000E9F78A95D1F77A95B9F7439A71E02D
:1039E60081E09AE09A950000E9F78A95D1F77A95F1
:1039F600B9F7449A2F914198409841982F9344984B
:103A060025E72BB971E081E093E09A950000E9F78C
:103A16008A95D1F77A95B9F7439871E081E09AE0F3
:103A26009A950000E9F78A95D1F77A95B9F7439AFE
:103A360071E081E09AE09A950000E9F78A95D1F75E
:103A46007A95B9F7449A2F91419A2F93449822E098
:103A56002BB971E081E093E09A950000E9F78A9529
:103A6600D1F77A95B9F7439871E081E09AE09A9593
:103A76000000E9F78A95D1F77A95B9F7439A71E08C
:103A860081E09AE09A950000E9F78A95D1F77A9550
:103A9600B9F7449A2F91409A2F93449825E72BB96A
:103AA60071E081E093E09A950000E9F78A95D1F7F5
:103AB6007A95B9F7439871E081E09AE09A9500000B
:103AC600E9F78A95D1F77A95B9F7439A71E081E0DB
:103AD6009AE09A950000E9F78A95D1F77A95B9F7B1
:103AE600449A2F91419A409A2F93449822E02BB9F9
:103AF60071E081E093E09A950000E9F78A95D1F7A5
:103B06007A95B9F7439871E081E09AE09A950000BA
:103B1600E9F78A95D1F77A95B9F7439A71E081E08A
:103B26009AE09A950000E9F78A95D1F77A95B9F760
:103B3600449A2F914198409841982F93449829E7A9
:103B46002BB971E081E093E09A950000E9F78A9538
:103B5600D1F77A95B9F7439871E081E09AE09A95A2
:103B66000000E9F78A95D1F77A95B9F7439A71E09B
:103B760081E09AE09A950000E9F78A95D1F77A955F
:103B8600B9F7449A2F91419A2F93449822E02BB982
:103B960071E081E093E09A950000E9F78A95D1F704
:103BA6007A95B9F7439871E081E09AE09A9500001A
:103BB600E9F78A95D1F77A95B9F7439A71E081E0EA
:103BC6009AE09A950000E9F78A95D1F77A95B9F7C0
:103BD600449A2F91409A2F93449829E72BB971E084
:103BE60081E093E09A950000E9F78A95D1F77A95F6
:103BF600B9F7439871E081E09AE09A950000E9F7F9
:103C06008A95D1F77A95B9F7439A71E081E09AE0FF
:103C16009A950000E9F78A95D1F77A95B9F7449A0B
:103C26002F91419A409A2F93449822E02BB971E044
:103C360081E093E09A950000E9F78A95D1F77A95A5
:103C4600B9F7439871E081E09AE09A950000E9F7A8
:103C56008A95D1F77A95B9F7439A71E081E09AE0AF
:103C66009A950000E9F78A95D1F77A95B9F7449ABB
:103C76002F914198409841982F9344982DE72BB95E
:103C860071E081E093E09A950000E9F78A95D1F713
:103C96007A95B9F7439871E081E09AE09A95000029
:103CA600E9F78A95D1F77A95B9F7439A71E081E0F9
:103CB6009AE09A950000E9F78A95D1F77A95B9F7CF
:103CC600449A2F91419A2F93449822E02BB971E0A0
:103CD60081E093E09A950000E9F78A95D1F77A9505
:103CE600B9F7439871E081E09AE09A950000E9F708
:103CF6008A95D1F77A95B9F7439A71E081E09AE00F
:103D06009A950000E9F78A95D1F77A95B9F7449A1A
:103D16002F91409A2F9344982DE72BB971E081E0BB
:103D260093E09A950000E9F78A95D1F77A95B9F765
:103D3600439871E081E09AE09A950000E9F78A9548
:103D4600D1F77A95B9F7439A71E081E09AE09A95AE
:103D56000000E9F78A95D1F77A95B9F7449A2F9139
:103D6600419A409A2F93449822E02BB971E081E062
:103D760093E09A950000E9F78A95D1F77A95B9F715
:103D8600439871E081E09AE09A950000E9F78A95F8
:103D9600D1F77A95B9F7439A71E081E09AE09A955E
:103DA6000000E9F78A95D1F77A95B9F7449A2F91E9
:103DB6004198409841982F93449820E82BB971E098
:103DC60081E093E09A950000E9F78A95D1F77A9514
:103DD600B9F7439871E081E09AE09A950000E9F717
:103DE6008A95D1F77A95B9F7439A71E081E09AE01E
:103DF6009A950000E9F78A95D1F77A95B9F7449A2A
:103E06002F91419A2F93449821E12BB971E081E0DB
:103E160093E09A950000E9F78A95D1F77A95B9F774
:103E2600439871E081E09AE09A950000E9F78A9557
:103E3600D1F77A95B9F7439A71E081E09AE09A95BD
:103E46000000E9F78A95D1F77A95B9F7449A2F9148
:103E5600409A2F93449820E82BB971E081E093E0D3
:103E66009A950000E9F78A95D1F77A95B9F74398BC
:103E760071E081E09AE09A950000E9F78A95D1F71A
:103E86007A95B9F7439A71E081E09AE09A95000035
:103E9600E9F78A95D1F77A95B9F7449A2F91419A1D
:103EA600409A2F93449821E12BB971E081E093E089
:103EB6009A950000E9F78A95D1F77A95B9F743986C
:103EC60071E081E09AE09A950000E9F78A95D1F7CA
:103ED6007A95B9F7439A71E081E09AE09A950000E5
:103EE600E9F78A95D1F77A95B9F7449A2F914198CF
:103EF600409841982F93449824E82BB971E081E0CB
:103F060093E09A950000E9F78A95D1F77A95B9F783
:103F1600439871E081E09AE09A950000E9F78A9566
:103F2600D1F77A95B9F7439A71E081E09AE09A95CC
:103F36000000E9F78A95D1F77A95B9F7449A2F9157
:103F4600419A2F93449821E12BB971E081E093E0E7
:103F56009A950000E9F78A95D1F77A95B9F74398CB
:103F660071E081E09AE09A950000E9F78A95D1F729
:103F76007A95B9F7439A71E081E09AE09A95000044
:103F8600E9F78A95D1F77A95B9F7449A2F91409A2D
:103F96002F93449824E82BB971E081E093E09A9539
:103FA6000000E9F78A95D1F77A95B9F7439871E059
:103FB60081E09AE09A950000E9F78A95D1F77A951B
:103FC600B9F7439A71E081E09AE09A950000E9F723
:103FD6008A95D1F77A95B9F7449A2F91419A409AE2
:103FE6002F93449821E12BB971E081E093E09A95F3
:103FF6000000E9F78A95D1F77A95B9F7439871E009
:1040060081E09AE09A950000E9F78A95D1F77A95CA
:10401600B9F7439A71E081E09AE09A950000E9F7D2
:104026008A95D1F77A95B9F7449A2F914198409895
:1040360041982F93449828E82BB971E081E093E0EA
:104046009A950000E9F78A95D1F77A95B9F74398DA
:1040560071E081E09AE09A950000E9F78A95D1F738
:104066007A95B9F7439A71E081E09AE09A95000053
:10407600E9F78A95D1F77A95B9F7449A2F91419A3B
:104086002F93449821E12BB971E081E093E09A9552
:104096000000E9F78A95D1F77A95B9F7439871E068
:1040A60081E09AE09A950000E9F78A95D1F77A952A
:1040B600B9F7439A71E081E09AE09A950000E9F732
:1040C6008A95D1F77A95B9F7449A2F91409A2F930A
:1040D600449828E82BB971E081E093E09A950000B6
:1040E600E9F78A95D1F77A95B9F7439871E081E0B7
:1040F6009AE09A950000E9F78A95D1F77A95B9F78B
:10410600439A71E081E09AE09A950000E9F78A9572
:10411600D1F77A95B9F7449A2F91419A409A2F93FD
:10412600449821E12BB971E081E093E09A95000073
:10413600E9F78A95D1F77A95B9F7439871E081E066
:104146009AE09A950000E9F78A95D1F77A95B9F73A
:10415600439A71E081E09AE09A950000E9F78A9522
:10416600D1F77A95B9F7449A2F914198409841989A
:104176002F9344982CE82BB971E081E093E09A954F
:104186000000E9F78A95D1F77A95B9F7439871E077
:1041960081E09AE09A950000E9F78A95D1F77A9539
:1041A600B9F7439A71E081E09AE09A950000E9F741
:1041B6008A95D1F77A95B9F7449A2F91419A2F9318
:1041C600449826EA2BB971E081E093E09A950000C5
:1041D600E9F78A95D1F77A95B9F7439871E081E0C6
:1041E6009AE09A950000E9F78A95D1F77A95B9F79A
:1041F600439A71E081E09AE09A950000E9F78A9582
:10420600D1F77A95B9F7449A2F91409A2F9344980B
:104216002CE82BB971E081E093E09A950000E9F76C
:104226008A95D1F77A95B9F7439871E081E09AE0DB
:104236009A950000E9F78A95D1F77A95B9F7439AE6
:1042460071E081E09AE09A950000E9F78A95D1F746
:104256007A95B9F7449A2F91419A409A2F934498A8
:1042660026EA2BB971E081E093E09A950000E9F720
:104276008A95D1F77A95B9F7439871E081E09AE08B
:104286009A950000E9F78A95D1F77A95B9F7439A96
:1042960071E081E09AE09A950000E9F78A95D1F7F6
:1042A6007A95B9F7449A2F914198409841982F935F
:1042B600449821E82BB971E081E093E09A950000DB
:1042C600E9F78A95D1F77A95B9F7439871E081E0D5
:1042D6009AE09A950000E9F78A95D1F77A95B9F7A9
:1042E600439A71E081E09AE09A950000E9F78A9591
:1042F600D1F77A95B9F7449A2F91419A2F9344981A
:1043060021E12BB971E081E093E09A950000E9F78D
:104316008A95D1F77A95B9F7439871E081E09AE0EA
:104326009A950000E9F78A95D1F77A95B9F7439AF5
:1043360071E081E09AE09A950000E9F78A95D1F755
:104346007A95B9F7449A2F91409A2F93449821E889
:104356002BB971E081E093E09A950000E9F78A9520
:10436600D1F77A95B9F7439871E081E09AE09A958A
:104376000000E9F78A95D1F77A95B9F7439A71E083
:1043860081E09AE09A950000E9F78A95D1F77A9547
:10439600B9F7449A2F91419A409A2F93449821E174
:1043A6002BB971E081E093E09A950000E9F78A95D0
:1043B600D1F77A95B9F7439871E081E09AE09A953A
:1043C6000000E9F78A95D1F77A95B9F7439A71E033
:1043D60081E09AE09A950000E9F78A95D1F77A95F7
:1043E600B9F7449A2F914198409841982F93449851
:1043F60025E82BB971E081E093E09A950000E9F792
:104406008A95D1F77A95B9F7439871E081E09AE0F9
:104416009A950000E9F78A95D1F77A95B9F7439A04
:1044260071E081E09AE09A950000E9F78A95D1F764
:104436007A95B9F7449A2F91419A2F93449821E19E
:104446002BB971E081E093E09A950000E9F78A952F
:10445600D1F77A95B9F7439871E081E09AE09A9599
:104466000000E9F78A95D1F77A95B9F7439A71E092
:1044760081E09AE09A950000E9F78A95D1F77A9556
:10448600B9F7449A2F91409A2F93449825E82BB96F
:1044960071E081E093E09A950000E9F78A95D1F7FB
:1044A6007A95B9F7439871E081E09AE09A95000011
:1044B600E9F78A95D1F77A95B9F7439A71E081E0E1
:1044C6009AE09A950000E9F78A95D1F77A95B9F7B7
:1044D600449A2F91419A409A2F93449821E12BB9FF
:1044E60071E081E093E09A950000E9F78A95D1F7AB
:1044F6007A95B9F7439871E081E09AE09A950000C1
:10450600E9F78A95D1F77A95B9F7439A71E081E090
:104516009AE09A950000E9F78A95D1F77A95B9F766
:10452600449A2F914198409841982F93449829E8AE
:104536002BB971E081E093E09A950000E9F78A953E
:10454600D1F77A95B9F7439871E081E09AE09A95A8
:104556000000E9F78A95D1F77A95B9F7439A71E0A1
:1045660081E09AE09A950000E9F78A95D1F77A9565
:10457600B9F7449A2F91419A2F93449821E12BB988
:1045860071E081E093E09A950000E9F78A95D1F70A
:104596007A95B9F7439871E081E09AE09A95000020
:1045A600E9F78A95D1F77A95B9F7439A71E081E0F0
:1045B6009AE09A950000E9F78A95D1F77A95B9F7C6
:1045C600449A2F91409A2F93449829E82BB971E089
:1045D60081E093E09A950000E9F78A95D1F77A95FC
:1045E600B9F7439871E081E09AE09A950000E9F7FF
:1045F6008A95D1F77A95B9F7439A71E081E09AE006
:104606009A950000E9F78A95D1F77A95B9F7449A11
:104616002F91419A409A2F93449821E12BB971E04A
:1046260081E093E09A950000E9F78A95D1F77A95AB
:10463600B9F7439871E081E09AE09A950000E9F7AE
:104646008A95D1F77A95B9F7439A71E081E09AE0B5
:104656009A950000E9F78A95D1F77A95B9F7449AC1
:104666002F914198409841982F9344982DE82BB963
:1046760071E081E093E09A950000E9F78A95D1F719
:104686007A95B9F7439871E081E09AE09A9500002F
:10469600E9F78A95D1F77A95B9F7439A71E081E0FF
:1046A6009AE09A950000E9F78A95D1F77A95B9F7D5
:1046B600449A2F91419A2F93449826EA2BB971E098
:1046C60081E093E09A950000E9F78A95D1F77A950B
:1046D600B9F7439871E081E09AE09A950000E9F70E
:1046E6008A95D1F77A95B9F7439A71E081E09AE015
:1046F6009A950000E9F78A95D1F77A95B9F7449A21
:104706002F91409A2F9344982DE82BB971E081E0C0
:1047160093E09A950000E9F78A95D1F77A95B9F76B
:10472600439871E081E09AE09A950000E9F78A954E
:10473600D1F77A95B9F7439A71E081E09AE09A95B4
:104746000000E9F78A95D1F77A95B9F7449A2F913F
:10475600419A409A2F93449826EA2BB971E081E05A
:1047660093E09A950000E9F78A95D1F77A95B9F71B
:10477600439871E081E09AE09A950000E9F78A95FE
:10478600D1F77A95B9F7439A71E081E09AE09A9564
:104796000000E9F78A95D1F77A95B9F7449A2F91EF
:1047A6004198409841982F93449820E92BB971E09D
:1047B60081E093E09A950000E9F78A95D1F77A951A
:1047C600B9F7439871E081E09AE09A950000E9F71D
:1047D6008A95D1F77A95B9F7439A71E081E09AE024
:1047E6009A950000E9F78A95D1F77A95B9F7449A30
:1047F6002F91419A2F93449820E02BB971E081E0E4
:1048060093E09A950000E9F78A95D1F77A95B9F77A
:10481600439871E081E09AE09A950000E9F78A955D
:10482600D1F77A95B9F7439A71E081E09AE09A95C3
:104836000000E9F78A95D1F77A95B9F7449A2F914E
:10484600409A2F93449820E92BB971E081E093E0D8
:104856009A950000E9F78A95D1F77A95B9F74398C2
:1048660071E081E09AE09A950000E9F78A95D1F720
:104876007A95B9F7439A71E081E09AE09A9500003B
:10488600E9F78A95D1F77A95B9F7449A2F91419A23
:10489600409A2F93449820E02BB971E081E093E091
:1048A6009A950000E9F78A95D1F77A95B9F7439872
:1048B60071E081E09AE09A950000E9F78A95D1F7D0
:1048C6007A95B9F7439A71E081E09AE09A950000EB
:1048D600E9F78A95D1F77A95B9F7449A2F914198D5
:1048E600409841982F93449824E92BB971E081E0D0
:1048F60093E09A950000E9F78A95D1F77A95B9F78A
:10490600439871E081E09AE09A950000E9F78A956C
:10491600D1F77A95B9F7439A71E081E09AE09A95D2
:104926000000E9F78A95D1F77A95B9F7449A2F915D
:10493600419A2F93449820E02BB971E081E093E0EF
:104946009A950000E9F78A95D1F77A95B9F74398D1
:1049560071E081E09AE09A950000E9F78A95D1F72F
:104966007A95B9F7439A71E081E09AE09A9500004A
:10497600E9F78A95D1F77A95B9F7449A2F91409A33
:104986002F93449824E92BB971E081E093E09A953E
:104996000000E9F78A95D1F77A95B9F7439871E05F
:1049A60081E09AE09A950000E9F78A95D1F77A9521
:1049B600B9F7439A71E081E09AE09A950000E9F729
:1049C6008A95D1F77A95B9F7449A2F91419A409AE8
:1049D6002F93449820E02BB971E081E093E09A95FB
:1049E6000000E9F78A95D1F77A95B9F7439871E00F
:1049F60081E09AE09A950000E9F78A95D1F77A95D1
:104A0600B9F7439A71E081E09AE09A950000E9F7D8
:104A16008A95D1F77A95B9F7449A2F91419840989B
:104A260041982F93449828E92BB971E081E093E0EF
:104A36009A950000E9F78A95D1F77A95B9F74398E0
:104A460071E081E09AE09A950000E9F78A95D1F73E
:104A56007A95B9F7439A71E081E09AE09A95000059
:104A6600E9F78A95D1F77A95B9F7449A2F91419A41
:104A76002F93449820E02BB971E081E093E09A955A
:104A86000000E9F78A95D1F77A95B9F7439871E06E
:104A960081E09AE09A950000E9F78A95D1F77A9530
:104AA600B9F7439A71E081E09AE09A950000E9F738
:104AB6008A95D1F77A95B9F7449A2F91409A2F9310
:104AC600449828E92BB971E081E093E09A950000BB
:104AD600E9F78A95D1F77A95B9F7439871E081E0BD
:104AE6009AE09A950000E9F78A95D1F77A95B9F791
:104AF600439A71E081E09AE09A950000E9F78A9579
:104B0600D1F77A95B9F7449A2F91419A409A2F9303
:104B1600449820E02BB971E081E093E09A9500007B
:104B2600E9F78A95D1F77A95B9F7439871E081E06C
:104B36009AE09A950000E9F78A95D1F77A95B9F740
:104B4600439A71E081E09AE09A950000E9F78A9528
:104B5600D1F77A95B9F7449A2F91419840984198A0
:104B66002F9344982CE92BB971E081E093E09A9554
:104B76000000E9F78A95D1F77A95B9F7439871E07D
:104B860081E09AE09A950000E9F78A95D1F77A953F
:104B9600B9F7439A71E081E09AE09A950000E9F747
:104BA6008A95D1F77A95B9F7449A2F91419A2F931E
:104BB600449820E02BB971E081E093E09A950000DB
:104BC600E9F78A95D1F77A95B9F7439871E081E0CC
:104BD6009AE09A950000E9F78A95D1F77A95B9F7A0
:104BE600439A71E081E09AE09A950000E9F78A9588
:104BF600D1F77A95B9F7449A2F91409A2F93449812
:104C06002CE92BB971E081E093E09A950000E9F771
:104C16008A95D1F77A95B9F7439871E081E09AE0E1
:104C26009A950000E9F78A95D1F77A95B9F7439AEC
:104C360071E081E09AE09A950000E9F78A95D1F74C
:104C46007A95B9F7449A2F91419A409A2F934498AE
:104C560020E02BB971E081E093E09A950000E9F736
:104C66008A95D1F77A95B9F7439871E081E09AE091
:104C76009A950000E9F78A95D1F77A95B9F7439A9C
:104C860071E081E09AE09A950000E9F78A95D1F7FC
:104C96007A95B9F7449A2F914198409841982F9365
:104CA600449821E92BB971E081E093E09A950000E0
:104CB600E9F78A95D1F77A95B9F7439871E081E0DB
:104CC6009AE09A950000E9F78A95D1F77A95B9F7AF
:104CD600439A71E081E09AE09A950000E9F78A9597
:104CE600D1F77A95B9F7449A2F91419A2F93449820
:104CF60020E02BB971E081E093E09A950000E9F796
:104D06008A95D1F77A95B9F7439871E081E09AE0F0
:104D16009A950000E9F78A95D1F77A95B9F7439AFB
:104D260071E081E09AE09A950000E9F78A95D1F75B
:104D36007A95B9F7449A2F91409A2F93449821E98E
:104D46002BB971E081E093E09A950000E9F78A9526
:104D5600D1F77A95B9F7439871E081E09AE09A9590
:104D66000000E9F78A95D1F77A95B9F7439A71E089
:104D760081E09AE09A950000E9F78A95D1F77A954D
:104D8600B9F7449A2F91419A409A2F93449820E07C
:104D96002BB971E081E093E09A950000E9F78A95D6
:104DA600D1F77A95B9F7439871E081E09AE09A9540
:104DB6000000E9F78A95D1F77A95B9F7439A71E039
:104DC60081E09AE09A950000E9F78A95D1F77A95FD
:104DD600B9F7449A2F914198409841982F93449857
:104DE60025E92BB971E081E093E09A950000E9F797
:104DF6008A95D1F77A95B9F7439871E081E09AE000
:104E06009A950000E9F78A95D1F77A95B9F7439A0A
:104E160071E081E09AE09A950000E9F78A95D1F76A
:104E26007A95B9F7449A2F91419A2F93449820E0A6
:104E36002BB971E081E093E09A950000E9F78A9535
:104E4600D1F77A95B9F7439871E081E09AE09A959F
:104E56000000E9F78A95D1F77A95B9F7439A71E098
:104E660081E09AE09A950000E9F78A95D1F77A955C
:104E7600B9F7449A2F91409A2F93449825E92BB974
:104E860071E081E093E09A950000E9F78A95D1F701
:104E96007A95B9F7439871E081E09AE09A95000017
:104EA600E9F78A95D1F77A95B9F7439A71E081E0E7
:104EB6009AE09A950000E9F78A95D1F77A95B9F7BD
:104EC600449A2F91419A409A2F93449820E02BB907
:104ED60071E081E093E09A950000E9F78A95D1F7B1
:104EE6007A95B9F7439871E081E09AE09A950000C7
:104EF600E9F78A95D1F77A95B9F7439A71E081E097
:104F06009AE09A950000E9F78A95D1F77A95B9F76C
:104F1600449A2F914198409841982F93449829E9B3
:104F26002BB971E081E093E09A950000E9F78A9544
:104F3600D1F77A95B9F7439871E081E09AE09A95AE
:104F46000000E9F78A95D1F77A95B9F7439A71E0A7
:104F560081E09AE09A950000E9F78A95D1F77A956B
:104F6600B9F7449A2F91419A2F93449820E02BB990
:104F760071E081E093E09A950000E9F78A95D1F710
:104F86007A95B9F7439871E081E09AE09A95000026
:104F9600E9F78A95D1F77A95B9F7439A71E081E0F6
:104FA6009AE09A950000E9F78A95D1F77A95B9F7CC
:104FB600449A2F91409A2F93449829E92BB971E08E
:104FC60081E093E09A950000E9F78A95D1F77A9502
:104FD600B9F7439871E081E09AE09A950000E9F705
:104FE6008A95D1F77A95B9F7439A71E081E09AE00C
:104FF6009A950000E9F78A95D1F77A95B9F7449A18
:105006002F91419A409A2F93449820E02BB971E052
:1050160081E093E09A950000E9F78A95D1F77A95B1
:10502600B9F7439871E081E09AE09A950000E9F7B4
:105036008A95D1F77A95B9F7439A71E081E09AE0BB
:105046009A950000E9F78A95D1F77A95B9F7449AC7
:105056002F914198409841982F9344982DE92BB968
:1050660071E081E093E09A950000E9F78A95D1F71F
:105076007A95B9F7439871E081E09AE09A95000035
:10508600E9F78A95D1F77A95B9F7439A71E081E005
:105096009AE09A950000E9F78A95D1F77A95B9F7DB
:1050A600449A2F91419A2F93449820E02BB971E0AE
:1050B60081E093E09A950000E9F78A95D1F77A9511
:1050C600B9F7439871E081E09AE09A950000E9F714
:1050D6008A95D1F77A95B9F7439A71E081E09AE01B
:1050E6009A950000E9F78A95D1F77A95B9F7449A27
:1050F6002F91409A2F9344982DE92BB971E081E0C6
:1051060093E09A950000E9F78A95D1F77A95B9F771
:10511600439871E081E09AE09A950000E9F78A9554
:10512600D1F77A95B9F7439A71E081E09AE09A95BA
:105136000000E9F78A95D1F77A95B9F7449A2F9145
:10514600419A409A2F93449820E02BB971E081E070
:1051560093E09A950000E9F78A95D1F77A95B9F721
:10516600439871E081E09AE09A950000E9F78A9504
:10517600D1F77A95B9F7439A71E081E09AE09A956A
:105186000000E9F78A95D1F77A95B9F7449A2F91F5
:105196004198409841982F93449820EB2BB971E0A1
:1051A60081E093E09A950000E9F78A95D1F77A9520
:1051B600B9F7439871E081E09AE09A950000E9F723
:1051C6008A95D1F77A95B9F7439A71E081E09AE02A
:1051D6009A950000E9F78A95D1F77A95B9F7449A36
:1051E6002F91419A2F93449825E42BB971E081E0E1
:1051F60093E09A950000E9F78A95D1F77A95B9F781
:10520600439871E081E09AE09A950000E9F78A9563
:10521600D1F77A95B9F7439A71E081E09AE09A95C9
:105226000000E9F78A95D1F77A95B9F7449A2F9154
:10523600409A2F93449820EB2BB971E081E093E0DC
:105246009A950000E9F78A95D1F77A95B9F74398C8
:1052560071E081E09AE09A950000E9F78A95D1F726
:105266007A95B9F7439A71E081E09AE09A95000041
:10527600E9F78A95D1F77A95B9F7449A2F91419A29
:10528600409A2F93449825E42BB971E081E093E08E
:105296009A950000E9F78A95D1F77A95B9F7439878
:1052A60071E081E09AE09A950000E9F78A95D1F7D6
:1052B6007A95B9F7439A71E081E09AE09A950000F1
:1052C600E9F78A95D1F77A95B9F7449A2F914198DB
:1052D600409841982F93449821EB2BB971E081E0D7
:1052E60093E09A950000E9F78A95D1F77A95B9F790
:1052F600439871E081E09AE09A950000E9F78A9573
:10530600D1F77A95B9F7439A71E081E09AE09A95D8
:105316000000E9F78A95D1F77A95B9F7449A2F9163
:10532600419A2F93449825E42BB971E081E093E0EC
:105336009A950000E9F78A95D1F77A95B9F74398D7
:1053460071E081E09AE09A950000E9F78A95D1F735
:105356007A95B9F7439A71E081E09AE09A95000050
:10536600E9F78A95D1F77A95B9F7449A2F91409A39
:105376002F93449821EB2BB971E081E093E09A9545
:105386000000E9F78A95D1F77A95B9F7439871E065
:1053960081E09AE09A950000E9F78A95D1F77A9527
:1053A600B9F7439A71E081E09AE09A950000E9F72F
:1053B6008A95D1F77A95B9F7449A2F91419A409AEE
:1053C6002F93449825E42BB971E081E093E09A95F8
:1053D6000000E9F78A95D1F77A95B9F7439871E015
:1053E60081E09AE09A950000E9F78A95D1F77A95D7
:1053F600B9F7439A71E081E09AE09A950000E9F7DF
:105406008A95D1F77A95B9F7449A2F9141984098A1
:1054160041982F93449824EB2BB971E081E093E0F7
:105426009A950000E9F78A95D1F77A95B9F74398E6
:1054360071E081E09AE09A950000E9F78A95D1F744
:105446007A95B9F7439A71E081E09AE09A9500005F
:10545600E9F78A95D1F77A95B9F7449A2F91419A47
:105466002F93449820EC2BB971E081E093E09A9554
:105476000000E9F78A95D1F77A95B9F7439871E074
:1054860081E09AE09A950000E9F78A95D1F77A9536
:10549600B9F7439A71E081E09AE09A950000E9F73E
:1054A6008A95D1F77A95B9F7449A2F91409A2F9316
:1054B600449824EB2BB971E081E093E09A950000C3
:1054C600E9F78A95D1F77A95B9F7439871E081E0C3
:1054D6009AE09A950000E9F78A95D1F77A95B9F797
:1054E600439A71E081E09AE09A950000E9F78A957F
:1054F600D1F77A95B9F7449A2F91419A409A2F930A
:10550600449820EC2BB971E081E093E09A95000075
:10551600E9F78A95D1F77A95B9F7439871E081E072
:105526009AE09A950000E9F78A95D1F77A95B9F746
:10553600439A71E081E09AE09A950000E9F78A952E
:10554600D1F77A95B9F7449A2F91419840984198A6
:105556002F93449828E22BB971E081E093E09A9565
:105566000000E9F78A95D1F77A95B9F7439871E083
:1055760081E09AE09A950000E9F78A95D1F77A9545
:10558600B9F7439A71E081E09AE09A950000E9F74D
:105596008A95D1F77A95B9F7449A2F91419A2F9324
:1055A600449820E02BB971E081E093E09A950000E1
:1055B600E9F78A95D1F77A95B9F7439871E081E0D2
:1055C6009AE09A950000E9F78A95D1F77A95B9F7A6
:1055D600439A71E081E09AE09A950000E9F78A958E
:1055E600D1F77A95B9F7449A2F91409A2F93449818
:1055F60028E22BB971E081E093E09A950000E9F783
:105606008A95D1F77A95B9F7439871E081E09AE0E7
:105616009A950000E9F78A95D1F77A95B9F7439AF2
:1056260071E081E09AE09A950000E9F78A95D1F752
:105636007A95B9F7449A2F91419A409A2F934498B4
:1056460020E02BB971E081E093E09A950000E9F73C
:105656008A95D1F77A95B9F7439871E081E09AE097
:105666009A950000E9F78A95D1F77A95B9F7439AA2
:1056760071E081E09AE09A950000E9F78A95D1F702
:105686007A95B9F7449A2F914198409841982F936B
:10569600449824EA2BB971E081E093E09A950000E2
:1056A600E9F78A95D1F77A95B9F7439871E081E0E1
:1056B6009AE09A950000E9F78A95D1F77A95B9F7B5
:1056C600439A71E081E09AE09A950000E9F78A959D
:1056D600D1F77A95B9F7449A2F91419A2F93449826
:1056E60022E12BB971E081E093E09A950000E9F799
:1056F6008A95D1F77A95B9F7439871E081E09AE0F7
:105706009A950000E9F78A95D1F77A95B9F7439A01
:1057160071E081E09AE09A950000E9F78A95D1F761
:105726007A95B9F7449A2F91409A2F93449824EA90
:105736002BB971E081E093E09A950000E9F78A952C
:10574600D1F77A95B9F7439871E081E09AE09A9596
:105756000000E9F78A95D1F77A95B9F7439A71E08F
:1057660081E09AE09A950000E9F78A95D1F77A9553
:10577600B9F7449A2F91419A409A2F93449822E17F
:105786002BB971E081E093E09A950000E9F78A95DC
:10579600D1F77A95B9F7439871E081E09AE09A9546
:1057A6000000E9F78A95D1F77A95B9F7439A71E03F
:1057B60081E09AE09A950000E9F78A95D1F77A9503
:1057C600B9F7449A2F914198409841982F9344985D
:1057D60020EA2BB971E081E093E09A950000E9F7A1
:1057E6008A95D1F77A95B9F7439871E081E09AE006
:1057F6009A950000E9F78A95D1F77A95B9F7439A11
:1058060071E081E09AE09A950000E9F78A95D1F770
:105816007A95B9F7449A2F91419A2F93449829E69D
:105826002BB971E081E093E09A950000E9F78A953B
:10583600D1F77A95B9F7439871E081E09AE09A95A5
:105846000000E9F78A95D1F77A95B9F7439A71E09E
:1058560081E09AE09A950000E9F78A95D1F77A9562
:10586600B9F7449A2F91409A2F93449820EA2BB97E
:1058760071E081E093E09A950000E9F78A95D1F707
:105886007A95B9F7439871E081E09AE09A9500001D
:10589600E9F78A95D1F77A95B9F7439A71E081E0ED
:1058A6009AE09A950000E9F78A95D1F77A95B9F7C3
:1058B600449A2F91419A409A2F93449829E62BB9FE
:1058C60071E081E093E09A950000E9F78A95D1F7B7
:1058D6007A95B9F7439871E081E09AE09A950000CD
:1058E600E9F78A95D1F77A95B9F7439A71E081E09D
:1058F6009AE09A950000E9F78A95D1F77A95B9F773
:10590600449A2F914198409841982F93449820EBC0
:105916002BB971E081E093E09A950000E9F78A954A
:10592600D1F77A95B9F7439871E081E09AE09A95B4
:105936000000E9F78A95D1F77A95B9F7439A71E0AD
:1059460081E09AE09A950000E9F78A95D1F77A9571
:10595600B9F7449A2F91419A2F93449825E42BB98D
:1059660071E081E093E09A950000E9F78A95D1F716
:105976007A95B9F7439871E081E09AE09A9500002C
:10598600E9F78A95D1F77A95B9F7439A71E081E0FC
:105996009AE09A950000E9F78A95D1F77A95B9F7D2
:1059A600449A2F91409A2F93449820EB2BB971E09B
:1059B60081E093E09A950000E9F78A95D1F77A9508
:1059C600B9F7439871E081E09AE09A950000E9F70B
:1059D6008A95D1F77A95B9F7439A71E081E09AE012
:1059E6009A950000E9F78A95D1F77A95B9F7449A1E
:1059F6002F91419A409A2F93449825E42BB971E050
:105A060081E093E09A950000E9F78A95D1F77A95B7
:105A1600B9F7439871E081E09AE09A950000E9F7BA
:105A26008A95D1F77A95B9F7439A71E081E09AE0C1
:105A36009A950000E9F78A95D1F77A95B9F7449ACD
:105A46002F914198409841982F93449828E22BB97A
:105A560071E081E093E09A950000E9F78A95D1F725
:105A66007A95B9F7439871E081E09AE09A9500003B
:105A7600E9F78A95D1F77A95B9F7439A71E081E00B
:105A86009AE09A950000E9F78A95D1F77A95B9F7E1
:105A9600449A2F91419A2F93449820EF2BB971E0A5
:105AA60081E093E09A950000E9F78A95D1F77A9517
:105AB600B9F7439871E081E09AE09A950000E9F71A
:105AC6008A95D1F77A95B9F7439A71E081E09AE021
:105AD6009A950000E9F78A95D1F77A95B9F7449A2D
:105AE6002F91409A2F93449828E22BB971E081E0D8
:105AF60093E09A950000E9F78A95D1F77A95B9F778
:105B0600439871E081E09AE09A950000E9F78A955A
:105B1600D1F77A95B9F7439A71E081E09AE09A95C0
:105B26000000E9F78A95D1F77A95B9F7449A2F914B
:105B3600419A409A2F93449820EF2BB971E081E067
