:100000000C945F000C947C000C947C000C947C009D
:100010000C947C000C94D6170C947C000C947C00FF
:100020000C947C000C947C000C947C000C947C0060
:100030000C947C000C94421A0C947C000C947C0070
:100040000C947C000C947C000C94DB180C947C00C9
:100050000C947C000C947C000C947C000C947C0030
:100060000C947C000C947C00AD01BF01D301E8012D
:100070004102FF011302260229023E02D102E202DE
:10008000F8022603470369038603A8031A07A60795
:100090003508C4085B09EB097D0A090B9B0B2E0C84
:1000A000BF0C500DE10D710E030F8F0F1110A0103A
:1000B000B312C312D312E312F31203131313112456
:1000C0001FBECFEFD8E0DEBFCDBF14E0A0E0B1E0AF
:1000D000E8EFFBE302C005900D92A23FB107D9F70C
:1000E00026E0A2EFB4E001C01D92A53AB207E1F705
:1000F0000E9485110C94FA1D0C94000095B19E7F0E
:1001000095B9662321F095B1926095B903C095B178
:100110009D7F95B998B1907F892B88B985B184600E
:1001200085B982E08A95F1F700C085B18B7F85B9EA
:100130000895CF93DF93C82FD62F82958F700E949A
:100140007E006D2F8C2F8F700E947E00DF91CF91EB
:100150000895882339F08FEB97E10197F1F700C0FC
:100160000000089595EC9A95F1F70000089584B188
:10017000826084B984B1816084B984B1846084B9B7
:1001800087B18F6087B98FE59AEE0197F1F700C0CC
:10019000000060E083E00E947E008FE090E4019721
:1001A000F1F700C0000060E083E00E947E008FE86D
:1001B00091E00197F1F700C0000060E083E00E9449
:1001C0007E0095EC9A95F1F7000060E082E00E94D5
:1001D0007E0080E00E94A90060E088E20E94990011
:1001E00080E00E94A90060E088E00E94990080E021
:1001F0000E94A90008950E94B70060E081E00E947B
:10020000990081E00E94A90060E086E00E949900C8
:1002100080E00E94A90060E08CE00E94990080E0EC
:100220000E94A9000895CF93C82F8091F20490E016
:100230000297CCF0CA30B9F080E00E94A90060E0DB
:1002400081E00E94990080E00E94A90060E082E0C5
:100250000E94990081E00E94A90060E080E80E946D
:1002600099001092F204CA3051F481E08093F204B4
:100270000E94A90060E080EC0E94990007C080E025
:100280000E94A90061E08C2F0E94990080E090E01C
:10029000CF91089581E00E94A90060E080E80E946B
:1002A000990008959FB79093FD05F89498B19F7EAB
:1002B00098B990E19A95F1F78EBD0DB407FEFDCF88
:1002C0008EB598B1906198B99FB79093FD05089548
:1002D000CF93DF93D62FC42F0E94520185E38A95D6
:1002E000F1F700008D2F0E94520185E38A95F1F706
:1002F00000008C2F0E94520185E38A95F1F70000DF
:10030000DF91CF9108957F928F929F92AF92BF928B
:10031000CF92DF92EF92FF920F931F93CF93DF93D1
:10032000CDB7DEB7962EF42E7888CC2039F0E82FA2
:10033000F0E0E851FB4F1081120F01C0122FA11005
:10034000B5C0BBC0882D90E08A30910508F099C0F7
:10035000FC01EC5CFF4F0C94021B492D50E0002E79
:1003600002C0440F551F0A94E2F78F2D90E00E2C27
:1003700002C0880F991F0A94E2F7480F83C0472DE7
:1003800050E049195109002E02C0440F551F0A942C
:10039000E2F78F2D90E00E2C02C0880F991F0A946F
:1003A000E2F7480F6FC0492D50E0002E02C0440F05
:1003B000551F0A94E2F72989822F90E08F1991093D
:1003C0000E2C02C0880F991F0A94E2F7480F5AC0FA
:1003D000472D50E049195109002E02C0440F551F06
:1003E0000A94E2F72989822F90E08F1991090E2C47
:1003F00002C0880F991F0A94E2F7480F43C0492DA5
:1004000050E04D5F5F4F002E02C0440F551F0A940D
:10041000E2F78F2D90E00E2C02C0880F991F0A94EE
:10042000E2F7480F2FC0492D50E0002E02C0440FC4
:10043000551F0A94E2F78F2D90E003960E2C02C010
:10044000880F991F0A94E2F7480F1CC0472D4919DD
:1004500019C0892D90E0AC01002E02C0440F551F39
:100460000A94E2F78F2D90E00E2C02C0880F991F9E
:100470000A94E2F7840F40EC480F04C0472D491955
:1004800001C0492D612F6C0D8A2D0E9468018FEFEC
:10049000C81AD80A02C0C12CD12C23E0C216D1043C
:1004A0000CF450CF8FEFA81AB80A02C0A12CB12CBF
:1004B00022E0A216B1047CF30CC04F2D50E002C024
:1004C000440F551FEA94E2F7490D622F80E00E9425
:1004D0006801DF91CF911F910F91FF90EF90DF9016
:1004E000CF90BF90AF909F908F907F900895AF92E4
:1004F000BF92CF92DF92EF92FF920F931F93CF9311
:10050000DF93CDB7DEB7CC5DD1400FB6F894DEBF38
:100510000FBECDBFB82EA92E8B01EEEFF5E0A68160
:10052000B781CD90DC90E080F18088E8EEE0F1E0EA
:10053000DE01119601900D928A95E1F782E2E6E9DB
:10054000F1E0DE01A757BF4F01900D928A95E1F7C8
:1005500089E9E8EBF1E0DE01A555BF4F01900D926E
:100560008A95E1F789E9E1E5F2E0DE01AC5BBE4F97
:1005700001900D928A95E1F70E944A0182E093E092
:100580009F938F930E941C1B0E944A010F900F9013
:100590000830110508F0EEC0F801E25CFF4F0C9442
:1005A000021BDF92CF92AF92BF928AE293E09F93B9
:1005B0008F930E941C1B0F900F900F900F900F9025
:1005C0000F90D8C0DF92CF92AF92BF92FF242FEF4F
:1005D000E21AF20AFF92EF9284E293E09F938F93E4
:1005E0000E941C1B0FB6F894DEBF0FBECDBFC2C069
:1005F000C114D104A9F4AF92BF92FF249FEFE91A6E
:10060000F90AFF92EF9281E393E09F938F930E9408
:100610001C1B0F900F900F900F900F900F90AAC07F
:10062000DF92CF92AF92BF92FF242FEFE21AF20A2D
:10063000FF92EF9284E293E09F938F930E941C1BA2
:100640000FB6F894DEBF0FBECDBF94C021E12C9D44
:10065000C0012D9D900D112421E030E02C0F3D1F95
:10066000820F931F9F938F933FEFC31AD30ADF929A
:10067000CF92AF92BF928FE393E09F938F930E94AC
:100680001C1B0FB6F894DEBF0FBECDBF73C021E1B7
:100690002C9DC0012D9D900D112429E830E02C0FD8
:1006A0003D1F820F931F9F938F93AF92BF92FF24A2
:1006B0003FEFE31AF30AFF92EF9289E493E09F93EE
:1006C0008F930E941C1B0FB6F894DEBF0FBECDBFE8
:1006D00051C021E12C9DC0012D9D900D11242BEACC
:1006E00030E02C0F3D1F820F931F9F938F93AF928B
:1006F000BF928FE493E09F938F930E941C1B0F90F7
:100700000F900F900F900F900F9034C021E12C9D0F
:10071000C0012D9D900D112424E431E02C0F3D1FCC
:10072000820F931F9F938F93AF92BF92FF243FEF4F
:10073000E31AF30AFF92EF9289E493E09F938F9379
:100740000E941C1B0FB6F894DEBF0FBECDBF12C0B7
:100750008CE296E09F938F93AF92BF928FE493E0E9
:100760009F938F930E941C1B0F900F900F900F90E0
:100770000F900F90C452DE4F0FB6F894DEBF0FBE3D
:10078000CDBFDF91CF911F910F91FF90EF90DF9040
:10079000CF90BF90AF900895FC0120813181261742
:1007A00037071CF4518340830895421753071CF404
:1007B000FC017183608308952F923F924F925F9264
:1007C0006F927F928F929F92AF92BF92CF92DF9261
:1007D000EF92FF920F931F93CF93DF93CDB7DEB7C6
:1007E000C256D1090FB6F894DEBF0FBECDBF3A0195
:1007F000522E402EC954DF4F48815981C75BD040EB
:10080000C754DF4FA881B981C95BD040C554DF4FC1
:1008100028803980CB5BD040C354DF4FE881F98119
:10082000CD5BD0406B96FFAFEEAF6B97C154DF4FFF
:10083000E881F981CF5BD0406D96FFAFEEAF6D9749
:10084000CF53DF4FE881F981C15CD0406F96FFAF95
:10085000EEAF6F97CD53DF4FE881F981C35CD04095
:10086000A196FFAFEEAFA197CB53DF4FE881F9819F
:10087000C55CD040A396FFAFEEAFA397EDE3F6E0E3
:1008800080839183EFE3F6E0608371837092920638
:1008900060929106E3E9F6E020833183E5E9F6E032
:1008A00000831183FA82E982DC82CB82BE82AD8230
:1008B00098868F82E9962EAD3FADE9973A872987D2
:1008C000EB962EAD3FADEB973C872B87ED962EAD8B
:1008D0003FADED973E872D87EF962EAD3FADEF975D
:1008E000388B2F87C158DF4F28813981CF57D040AF
:1008F0003A8B298BCF57DF4F28813981C158D0409F
:100900003C8B2B8BCD57DF4F28813981C358D0408A
:100910003E8B2D8BCB57DF4F28813981C558D04076
:10092000388F2F8BC957DF4F28813981C758D04066
:100930003A8F298FC757DF4F28813981C958D04056
:100940003C8F2B8FC557DF4F28813981CB58D04042
:100950003E8F2D8FC357DF4F28813981CD58D0402E
:1009600038A32F8FC157DF4F28813981CF58D0400E
:100970003AA329A3CF56DF4F28813981C159D040EE
:100980003CA32BA3CD56DF4F28813981C359D040DA
:100990003EA32DA3CB56DF4F28813981C559D040C6
:1009A00038A72FA3C956DF4F28813981C759D040B6
:1009B0003AA729A7C756DF4F28813981C959D040A6
:1009C0003CA72BA7C556DF4F28813981CB59D04092
:1009D0003EA72DA7C356DF4F28813981CD59D0407E
:1009E00038AB2FA7C156DF4F28813981CF59D0406E
:1009F0003AAB29ABCF55DF4F28813981C15AD0405E
:100A00003CAB2BABCD55DF4F28813981C35AD04049
:100A10003EAB2DABCB55DF4F28813981C55AD04035
:100A200038AF2FABC955DF4F28813981C75AD04025
:100A30003AAF29AFC755DF4F28813981C95AD04015
:100A40003CAF2BAFC555DF4F28813981CB5AD04001
:100A50003EAF2DAFC355DF4F28813981CD5AD040ED
:100A600021963FAF2EAF2197C155DF4F28813981A5
:100A7000CF5AD04023963FAF2EAF2397CF54DF4FAE
:100A800028813981C15BD04025963FAF2EAF259795
:100A9000CD54DF4F28813981C35BD04027963FAFCB
:100AA0002EAF2797CB54DF4F28813981C55BD040CB
:100AB00029963FAF2EAF29972B965FAF4EAF2B975E
:100AC0002D96BFAFAEAF2D972F963FAE2EAE2F9780
:100AD0006B962EAD3FAD6B9761963FAF2EAF619792
:100AE0006D96EEADFFAD6D976396FFAFEEAF63977A
:100AF0006F962EAD3FAD6F9765963FAF2EAF659762
:100B0000A196EEADFFADA1976796FFAFEEAF6797E9
:100B1000A3962EAD3FADA39769963FAF2EAF6997D1
:100B20001F921F92812CAA24A394C12C0F2EF3E0B4
:100B3000EF2EF02D00E020EB462F682F80E00E9482
:100B400083010F900F906114710461F41F921F9242
:100B5000A12C22E240E060E080E00E9483010F903F
:100B60000F9013C06FEF660D1F921F92812CA12C66
:100B7000C12C0F2EF3E0EF2EF02D00E022E241E039
:100B800080E00E9483010F900F901F921F92689443
:100B9000882483F8AA24A394C12C6894EE24E2F854
:100BA00000E024EB442D652D80E00E9483010F902E
:100BB0000F90412C512C08C19201220F331F662443
:100BC0006394712C6C0E7D1E620E731EF3016081A6
:100BD0004181C90182509A4FFC01E55BFF4F608360
:100BE0004183F30140855185FC01ED5BFF4F40835C
:100BF0005183F30110895189FC01ED5AFF4F108395
:100C00005183F301B08C518DFC01E55AFF4FB08246
:100C10005183F301F0A051A1FC01ED59FF4FF08287
:100C20005183F301F0A56A96FFAF6A97F30151A5CE
:100C3000FC01E559FF4F6A967FAD6A977083518337
:100C4000F301F0A96C96FFAF6C97F30151A9FC0179
:100C5000ED58FF4F6C967FAD6C9770835183E1E444
:100C6000F0E0EC0FFD1FE20FF31F90805181FC01BB
:100C7000ED57FF4F90825183E9E4F0E0EC0FFD1F48
:100C8000E20FF31F20803180FC01E557FF4F3182D6
:100C90002082E1E5F0E0EC0FFD1FE20FF31FD080B2
:100CA0002181FC01E756FF4FD08221831F921F92C2
:100CB0000F2EF6E08F2EF02DAA24A394CC24C394FB
:100CC0006894EE24E2F800E020E3842D0E94830182
:100CD0001F928FE78F930F2EF9E08F2EF02DE12CCE
:100CE00020E440E0612F842D0E9483011F921FE1C8
:100CF0001F93882483940F2EF6E0EF2EF02D20E52D
:100D0000492D6B2D842D0E9483011F921F930F2E5E
:100D1000F7E0EF2EF02D20E64D2D6F2D842D0E9453
:100D20008301F30140AD8FE08F938F930F2EF3E09B
:100D30008F2EF02DE12C04E020E86A966FAD6A97C3
:100D4000842D0E9483011F921F930F2EF7E08F2E98
:100D5000F02D00E020E740E06C966FAD6C97842D9D
:100D60000E9483010FB6F894DEBF0FBECDBF2114E1
:100D7000310491F41F921F926894882482F80F2EF8
:100D8000F3E0EF2EF02D20E940E060E0842D0E949A
:100D900083010F900F9015C06FEF620D1F921F928D
:100DA000812CAA24A394CC24C3940F2EF3E0EF2E1D
:100DB000F02D00E020E941E0842D0E9483010F9096
:100DC0000F903FEF431A530A54E0451651040CF4B8
:100DD000F3CECE59DF4F0FB6F894DEBF0FBECDBFB6
:100DE000DF91CF911F910F91FF90EF90DF90CF9007
:100DF000BF90AF909F908F907F906F905F904F903B
:100E00003F902F9008958F929F92AF92BF92CF9272
:100E1000DF92EF92FF920F931F93E0912A06F091D9
:100E20002B06E231F10510F00C942711EA5BFF4F1D
:100E30000C94021B80E1E6E5F3E0ACE2B6E0019041
:100E40000D928A95E1F71F921F921F921F921F9297
:100E50001F921F921F921F921F921F921F921F920A
:100E60001F921F921F921F9292E09F931F9281E008
:100E70008F931F929F931F928F931F928F931F9216
:100E80008F931F928F931F928F931F929DE19F9339
:100E90001F929F931F929F931F929F931F921F9247
:100EA0001F921F921F921F921F921F921F929FE0EC
:100EB0009F931F9290E19F931F929F931F929F93E6
:100EC0001F921F921F921F921F921F921F921F929A
:100ED0001F929FE79F931F9295E79F931F929F9367
:100EE0001F929FE39F931F921F921F9293E09F93E5
:100EF0001F928F938FEF8F938DEF8F936894882439
:100F000081F8912C6894AA24A2F8B12C6894CC247E
:100F1000C3F8D12C0F2EFAE0EF2EF12CF02D00E0CB
:100F200010E020E030E040E050E060E070E087E07A
:100F300090E00E94DC038DB79EB7805B9F4F0FB699
:100F4000F8949EBF0FBE8DBF0C9427118DE0E6E68E
:100F5000F3E0ACE2B6E001900D928A95E1F71F92C2
:100F60001F921F921F921F921F921F921F921F92F9
:100F70001F921F921F921F921F921F921F921F92E9
:100F800081E08F931F928F931F928F931F928F9365
:100F90001F9287E08F931F9298E09F931F9295E096
:100FA0009F931F928F931F922DE12F931F921F9259
:100FB0001F9230E13F931F922F931F922DE02F93AA
:100FC0001F921F921F929F931F929EE09F931F92CA
:100FD0009FE19F931F9297E19F931F921F921F92F1
:100FE00094E09F931F928F931F928CE08F931F9298
:100FF00082E08F931F921F921F928FE78F931F9211
:101000008F931F928F931F928F931F921F921F9205
:101010001F921F921F921F921F920F2EF6E08F2E8B
:10102000912CF02D6894AA24A1F8B12C0F2EFAE08F
:10103000CF2ED12CF02DEE24E394F12C00E010E023
:1010400024E030E042E050E064E070E083E090E0D3
:101050000E94DC038DB79EB7805B9F4F0FB6F8945C
:101060009EBF0FBE8DBF0C9427118DE0E3E7F3E028
:10107000ACE2B6E001900D928A95E1F71F921F92C3
:101080001F921F921F921F921F921F921F921F92D8
:101090001F921F921F921F921F921F921F9282E017
:1010A0008F931F9291E09F931F928F931F929F9314
:1010B0001F928AE08F931F9287E08F931F928F93E6
:1010C0001F928F931F928DE18F931F928F931F9288
:1010D0008F931F928F931F921F921F921F921F92A6
:1010E0001F921F921F921F9285E18F931F9280E1A2
:1010F0008F931F928F931F928F931F921F921F9215
:1011000089E08F931F921F921F921F921F928FE769
:101110008F931F9280E78F931F928F931F928BE183
:101120008F931F921F921F9283E08F931F929F9322
:101130008FEF8F938DEF8F936894882481F8912C93
:101140006894AA24A2F8B12C6894CC24C3F8D12CBA
:101150000F2EFAE0EF2EF12CF02D00E010E020E051
:1011600030E040E050E060E070E084E090E00E9419
:10117000DC038DB79EB7805B9F4F0FB6F8949EBF80
:101180000FBE8DBF0C9427118FE0E0E8F3E0ACE2D6
:10119000B6E001900D928A95E1F71F921F921F927F
:1011A00081E08F931F921F921F921F921F921F9296
:1011B0001F921F921F921F921F921F921F9292E0E6
:1011C0009F931F928F931F929F931F928F931F92B3
:1011D0009BE09F931F9293E19F931F928F931F9287
:1011E00099E09F931F929DE19F931F929F931F925F
:1011F0009F931F929F931F921F921F929CE09F9319
:101200001F9297E09F931F929DE09F931F9295E1FD
:101210009F931F9290E19F931F9297E19F931F923C
:101220009FE09F931F921F921F9299E19F931F929D
:101230009AE19F931F929AE09F931F929FE79F933B
:101240001F9295E79F931F929F931F9294E69F93FF
:101250001F921F921F9293E09F931F928F938FEF85
:101260008F938DEF8F936894882481F8912C0F2EA3
:10127000F6E0AF2EB12CF02D6894CC24C3F8D12C1D
:101280000F2EFAE0EF2EF12CF02D03E010E020E01D
:1012900030E043E050E063E070E085E090E00E94E1
:1012A000DC038DB79EB7805B9F4F0FB6F8949EBF4F
:1012B0000FBE8DBFCCC78FE0EFE8F3E0ACE2B6E045
:1012C00001900D928A95E1F71F921F921F9281E083
:1012D0008F931F928F931F928F931F921F921F9233
:1012E00023E02F931F928F931F922F931F928F9320
:1012F0001F9292E09F931F928F931F929F931F9232
:1013000038E03F931F9296E09F931F929F931F9206
:101310009F931F929DE19F931F929F931F929F9374
:101320001F929F931F929FE09F931F921F921F9265
:101330001F921F921F921F9296E19F931F9293E11B
:101340009F931F929F931F9292E19F931F923F93AF
:101350001F929EE09F931F9231E13F931F929F93B4
:101360001F929FE79F931F9290E79F931F929F93D7
:101370001F9298E59F931F921F921F922F931F9287
:101380008F938FEF8F938DEF8F936894882481F8DC
:10139000912CAA24A394B12C6894CC24C3F8D12C0A
:1013A0000F2EFAE0EF2EF12CF02D02E010E026E0F7
:1013B00030E041E050E066E070E080E090E00E94C4
:1013C000DC038DB79EB7805B9F4F0FB6F8949EBF2E
:1013D0000FBE8DBF3CC78DE0EEE9F3E0ACE2B6E0B6
:1013E00001900D928A95E1F71F921F921F921F9212
:1013F0001F921F921F921F921F921F921F921F9265
:101400001F921F921F921F921F9281E08F931F9233
:101410008F931F928F931F928F931F9288E08F93C9
:101420001F928F931F928F931F928F931F928BE126
:101430008F931F929FE19F931F929F931F929F9361
:101440001F929CE09F931F929F931F929AE09F93FD
:101450001F922DE02F931F9225E12F931F922AE1D7
:101460002F931F9226E12F931F928F931F929F938A
:101470001F928F931F9283E18F931F9280E18F932E
:101480001F928FE78F931F928AE68F931F9281E6B8
:101490008F931F928EE78F931F921F921F9283E06C
:1014A0008F939FEF9F939DEF9F931F928F936894CD
:1014B000882481F8912C0F2EF7E0AF2EB12CF02D5F
:1014C0006894CC24C1F8D12CEE24E394F12C00E0F4
:1014D00010E020E030E040E050E065E070E082E0C5
:1014E00090E00E94DC038DB79EB7805B9F4F0FB6E4
:1014F000F8949EBF0FBE8DBFAAC688E0EBEAF3E06A
:10150000ACE2B6E001900D928A95E1F71F921F922E
:101510001F921F921F921F921F921F921F921F9243
:101520001F921F921F921F921F921F921F9281E083
:101530008F931F928F931F928F931F928F931F925F
:101540008F931F928F931F928F931F928F931F924F
:1015500092E19F931F921F921F929DE19F931F9272
:101560009F931F921F921F921F921F921F921F9272
:101570001F921F929CE09F931F929FE19F931F9247
:1015800097E19F931F9290E19F931F921F921F924A
:101590001F921F921F921F921F921F929FE79F936D
:1015A0001F9298E79F931F9295E79F931F929CE746
:1015B0009F939FEF9F939F931F928F931F9282E021
:1015C0008F939F938EEF8F936894882481F8912C4A
:1015D000AA24A394B12C6894CC24C1F8D12C68948B
:1015E000EE24E2F8F12C00E010E020E030E040E0F2
:1015F00050E064E070E087E090E00E94DC038DB78B
:101600009EB7805B9F4F0FB6F8949EBF0FBE8DBFF5
:101610001EC68DE0E3EBF3E0ACE2B6E001900D9284
:101620008A95E1F71F921F921F921F921F921F929D
:101630001F921F921F921F921F921F921F921F9222
:101640001F921F921F9282E08F931F9221E02F938F
:101650001F928F931F928F931F9299E09F931F92D7
:101660003AE03F931F922F931F929F931F929DE109
:101670009F931F929F931F929F931F929F931F92DE
:101680001F921F921F921F921F921F921F921F92D2
:1016900091E19F931F923F931F9294E19F931F921A
:1016A0009FE09F931F922F931F928F931F929EE014
:1016B0009F931F929BE09F931F929FE79F931F9280
:1016C00096E79F931F929FE49F931F929FE69F939D
:1016D0009FEF9F939F931F9223E02F931F928F93CF
:1016E0009F938DEF8F936894882482F8912C0F2E0E
:1016F000F3E0AF2EB12CF02D0F2EF6E0CF2ED12C33
:10170000F02D6894EE24E2F8F12C00E010E020E0E7
:1017100030E040E050E060E070E083E090E00E9464
:10172000DC038DB79EB7805B9F4F0FB6F8949EBFCA
:101730000FBE8DBF8CC58CE0E0ECF3E0ACE2B6E010
:1017400001900D928A95E1F71F921F921F921F92AE
:101750001F921F921F921F921F921F921F921F9201
:101760001F921F921F921F921F9292E09F931F92AF
:1017700081E08F931F929F931F929F931F9229E066
:101780002F931F923AE03F931F928F931F922F93B4
:101790001F922DE12F931F924FE14F931F922F9392
:1017A0001F922F931F921F921F921F921F921F92A0
:1017B0001F921F921F9225E12F931F9221E12F93D9
:1017C0001F9224E12F931F922FE02F931F928F934C
:1017D0001F928BE18F931F9286E18F931F923F930D
:1017E0001F928FE78F931F9286E78F931F9285E753
:1017F0008F931F928FE68F938FEF8F938F931F920C
:1018000023E02F931F929F938F938F936894882444
:1018100082F8912C0F2EF7E0AF2EB12CF02D0F2E69
:10182000F6E0CF2ED12CF02D6894EE24E2F8F12CC6
:1018300000E010E020E030E040E050E064E070E0E4
:1018400083E090E00E94DC038DB79EB7805B9F4FE2
:101850000FB6F8949EBF0FBE8DBFF9C48DE0ECECBF
:10186000F3E0ACE2B6E001900D928A95E1F71F92A9
:101870001F921F921F921F921F921F921F921F92E0
:101880001F921F921F921F921F921F921F921F92D0
:1018900081E08F931F928F931F928F931F928F934C
:1018A0001F9294E09F931F929F931F929F931F926A
:1018B0009F931F929FE19F931F929F931F929F93CD
:1018C0001F929F931F929DE09F931F929BE09F9377
:1018D0001F929AE09F931F9299E09F931F9298E125
:1018E0009F931F9293E19F931F929BE19F931F925F
:1018F00099E19F931F921F921F921F921F9227E1BF
:101900002F931F929F931F929FE79F931F9297E79A
:101910009F931F9296E79F931F9294E79F931F9226
:101920001F921F928F939FEF9F938EEF8F939F93A2
:101930008F9388248394912C6894AA24A1F8B12CC5
:101940000F2EF3E0CF2ED12CF02D6894EE24E1F889
:10195000F12C00E010E020E030E040E050E065E0F5
:1019600070E083E090E00E94DC038DB79EB7805B5F
:101970009F4F0FB6F8949EBF0FBE8DBF68C48DE019
:10198000E9EDF3E0ACE2B6E001900D928A95E1F763
:101990001F921F921F9281E08F931F921F921F929E
:1019A0001F921F921F921F921F921F921F921F92AF
:1019B0001F921F9292E09F931F928F931F929F936B
:1019C0001F928F931F929F931F9223E02F931F923A
:1019D0008F931F9234E03F931F929DE19F931F923C
:1019E0009F931F929F931F929F931F921F921F92EC
:1019F0001F921F921F921F923F931F929AE19F93F3
:101A00001F929BE19F931F9290E19F931F9299E1F8
:101A10009F931F9297E09F931F929CE09F931F922A
:101A200096E09F931F9298E09F931F929FE79F934A
:101A30001F929CE79F931F9295E79F931F929CE6AE
:101A40009F931F921F921F922F931F928F938FEF3E
:101A50008F938F936894882481F8912C6894AA249A
:101A6000A1F8B12C6894CC24C1F8D12C6894EE2450
:101A7000E1F8F12C02E010E025E030E042E050E037
:101A800065E070E085E090E00E94DC038DB79EB7D2
:101A9000805B9F4F0FB6F8949EBF0FBE8DBFD7C31C
:101AA0008AE0E6EEF3E0ACE2B6E001900D928A95B2
:101AB000E1F71F921F921F921F921F9281E08F9356
:101AC0001F921F921F921F921F921F921F921F928E
:101AD0001F921F921F928F931F928F931F928F932B
:101AE0001F928F931F9287E08F931F9298E09F938E
:101AF0001F928F931F928F931F928DE18F931F924E
:101B00008F931F928F931F928F931F921F921F92FA
:101B10001F921F921F921F921F921F9294E19F93F8
:101B20001F9297E19F931F929CE19F931F9290E1D8
:101B30009F931F9292E19F931F928F931F9286E132
:101B40008F931F9293E09F931F928FE78F931F9223
:101B500085E78F931F9222E72F931F928F931F92F7
:101B60001F928FEF8F932EEF2F931F929F938F9340
:101B70008DEF8F936894882482F8912C6894AA241E
:101B8000A2F8B12C0F2EF5E0CF2ED12CF02D6894B9
:101B9000EE24E2F8F12C03E010E022E030E043E034
:101BA00050E066E070E084E090E00E94DC038DB7D6
:101BB0009EB7805B9F4F0FB6F8949EBF0FBE8DBF40
:101BC00046C38FE0E0EFF3E0ACE2B6E001900D92A7
:101BD0008A95E1F71F921F921F9281E08F931F92C7
:101BE0001F921F921F921F921F921F921F921F926D
:101BF0008F931F921F921F928F931F928F931F920A
:101C000082E08F931F928F931F9288E08F931F9291
:101C10008F931F928F931F9289E08F931F928FE172
:101C20008F931F928F931F928F931F928F931F9268
:101C30001F921F928CE08F931F921F921F9285E03C
:101C40008F931F9285E18F931F9283E18F931F9251
:101C50008F931F9289E18F931F921F921F921F9261
:101C60001F9280E18F931F928BE18F931F928FE7DA
:101C70008F931F9296E79F931F9298E69F931F92D0
:101C80008F931F921F921F921F921F921F921F925B
:101C90001F920F2EF6E08F2E912CF02D0F2EFAE0D2
:101CA000AF2EB12CF02D6894CC24C1F8D12C6894BF
:101CB000EE24E1F8F12C01E010E020E030E045E016
:101CC00050E062E070E085E090E00E94DC038DB7B8
:101CD0009EB7805B9F4F0FB6F8949EBF0FBE8DBF1F
:101CE000B6C28AE0EFEFF3E0ACE2B6E001900D920D
:101CF0008A95E1F71F921F921F9281E08F931F92A6
:101D00001F921F921F921F921F921F921F921F924B
:101D10001F921F921F921F928F931F928F931F9259
:101D20008F931F928F931F9298E09F931F929F9380
:101D30001F929F931F929AE09F931F929FE19F9300
:101D40001F929F931F929F931F929F931F929BE0BE
:101D50009F931F929F931F929F931F929F931F92F7
:101D600027E12F931F9296E19F931F922F931F922B
:101D70009F931F921F921F9299E19F931F921F9210
:101D80001F921F921F9296E79F931F929DE79F932A
:101D90001F9298E79F931F9291E79F931F928F93B3
:101DA0001F9283E08F938FEF8F938F938F938DEF9D
:101DB0008F930F2EF3E08F2E912CF02D0F2EFEE03F
:101DC000AF2EB12CF02D0F2EF3E0CF2ED12CF02D15
:101DD0000F2EF7E0EF2EF12CF02D02E010E020E0C6
:101DE00030E042E050E065E070E086E090E00E9484
:101DF000DC038DB79EB7805B9F4F0FB6F8949EBFF4
:101E00000FBE8DBF24C28EE0E9E0F4E0ACE2B6E0A4
:101E100001900D928A95E1F71F921F921F921F92D7
:101E20001F9281E08F931F921F921F921F921F9209
:101E30008F931F921F921F921F921F928F931F9238
:101E40008F931F928F931F928F931F9287E08F9390
:101E50001F928F931F928F931F9299E09F931F92CF
:101E60009FE19F931F929F931F929F931F928F9327
:101E70001F928AE08F931F921F921F9283E08F938D
:101E80001F921F921F928CE18F931F9298E09F9355
:101E90001F929AE19F931F929EE19F931F9298E158
:101EA0009F931F9294E19F931F928F931F928BE1B8
:101EB0008F931F928FE78F931F9288E78F931F92C4
:101EC0008F931F928F931F921F921F921F921F92A8
:101ED0001F921F921F926894882481F8912C689415
:101EE000AA24A2F8B12CCC24C394D12CEE24E394E0
:101EF000F12C02E010E020E030E043E050E065E04B
:101F000070E085E090E00E94DC038DB79EB7805BB7
:101F10009F4F0FB6F8949EBF0FBE8DBF98C18DE046
:101F2000E7E1F4E0ACE2B6E001900D928A95E1F7CA
:101F30001F921F921F921F921F921F921F921F9219
:101F40001F921F921F921F921F921F921F921F9209
:101F50001F921F921F921F921F921F921F921F92F9
:101F60001F921F921F921F921F921F921F921F92E9
:101F70001F928FE18F931F928F931F928F931F92C7
:101F80008F931F929FE09F931F929F931F929F9307
:101F90001F929F931F928F931F928F931F928F93E5
:101FA0001F928F931F921F921F921F921F921F9238
:101FB0001F921F921F928FE78F931F921F921F9263
:101FC0001F921F921F921F921F921F921F921F9289
:101FD0001F921F921F926894882481F8912C689414
:101FE000AA24A1F8B12C6894CC24C1F8D12C68940F
:101FF000EE24E1F8F12C00E010E020E030E040E0D9
:1020000050E060E070E087E090E00E94DC038DB774
:102010009EB7805B9F4F0FB6F8949EBF0FBE8DBFDB
:1020200016C189E0E4E2F4E0ACE2B6E001900D9282
:102030008A95E1F71F921F921F921F921F921F9283
:102040001F921F921F921F921F921F921F921F9208
:102050001F921F921F9282E08F931F9291E09F9395
:102060001F928F931F929F931F922AE02F931F928C
:1020700087E08F931F928F931F928F931F928DE112
:102080008F931F928F931F928F931F928F931F9204
:102090001F921F921F921F921F921F921F921F92B8
:1020A00039E13F931F928F931F921F921F9280E1FD
:1020B0008F931F921F921F9284E18F931F922F93F1
:1020C0001F9282E18F931F928FE78F931F9280E779
:1020D0008F931F928F931F928BE18F931F921F926A
:1020E0001F9283E08F931F929F938FEF8F938DEFBB
:1020F0008F936894882481F8912C6894AA24A2F87C
:10210000B12C6894CC24C3F8D12C0F2EFAE0EF2E1A
:10211000F12CF02D00E010E020E030E040E050E055
:1021200060E070E081E090E00E94DC038DB79EB734
:10213000805B9F4F0FB6F8949EBF0FBE8DBF87C0C8
:102140008AE0EDE2F4E0ACE2B6E001900D928A950F
:10215000E1F71F921F921F921F921F921F921F92D0
:102160001F921F921F921F921F921F921F921F92E7
:102170001F921F9281E08F931F928F931F928F93D4
:102180001F928F931F9289E08F931F9286E08F9307
:102190001F9288E08F931F928F931F928FE18F93EE
:1021A0001F928F931F928F931F928F931F921F9254
:1021B0001F921F921F921F921F921F921F928DE0DB
:1021C0008F931F9289E18F931F9283E18F931F92C8
:1021D00088E18F931F921F921F921F921F921F924E
:1021E0001F921F921F928FE78F931F9288E78F9302
:1021F0001F928F931F928F931F921F921F921F9275
:102200001F921F921F921F9288248394912CAA24BC
:10221000A394B12CCC24C394D12C0F2EFAE0EF2E32
:10222000F12CF02D00E010E020E030E040E050E044
:1022300064E070E086E090E00E94DC038DB79EB71A
:10224000805B9F4F0FB6F8949EBF0FBE8DBF1F914E
:102250000F91FF90EF90DF90CF90BF90AF909F9045
:102260008F90089543E050E060E070E080E096E0F9
:102270000E94CC03EEEFF5E01582148282819381F7
:1022800081309105B9F01CF4892B39F00895823022
:102290009105E9F0039761F108958AE296E0909341
:1022A00005068093040667E070E087E394E00E94EF
:1022B000770208958DE396E09093050680930406D7
:1022C00063E070E084E494E00E9477020895EEEF0A
:1022D000F5E080819181880F991F875A994F9783E4
:1022E000868361E070E08EE494E00E9477020895B6
:1022F00081E996E0909305068093040665E070E01E
:1023000085E594E00E947702089580E091E0909343
:10231000A2068093A1060E94FB0084B18E6284B95C
:1023200087B18F6187B98AB1807E8AB982E58CBD19
:1023300080E98093C10086E08093C2008FE190E045
:102340009093C5008093C4008EE180936D0084E07B
:102350008093680088B1806188B91092800081E024
:1023600080938100EFE6F0E08081816080831092AD
:1023700085001092840089B18871E3EFF4E08283D4
:102380008281887090E0959587959595879595952C
:10239000879580838281807190E09595879595954A
:1023A00087959595879595958795818389B1827055
:1023B00090E095958795838389B1847090E0959599
:1023C0008795959587958483EEEFF5E011821082CD
:1023D00013821282158214828FE090E095A784A761
:1023E0008AE296E0978386831092FA051092F905A7
:1023F0001092FB058EE594E09F938F930E941C1B27
:102400002FEF83ED90E3215080409040E1F700C032
:1024100000000E9403070E94321178940F900F90E1
:10242000FFCFCF93DF9343E050E060E070E08EEFAA
:1024300095E00E94CC03EEEFF5E0C081D18182816E
:102440009381009779F440E050E060E070E082E032
:1024500096E00E94CC0367E070E087E394E00E947E
:10246000770243C18130910509F065C044E050E036
:1024700060E070E082E096E00E94CC03809102066A
:10248000909103068230910531F12CF4009749F0C8
:102490000197A1F02AC18330910569F10497D9F120
:1024A00024C18DE396E0909305068093040663E0D3
:1024B00070E084E494E00E94770217C18FE396E015
:1024C000909305068093040660E070E08DE794E049
:1024D0000E9477020AC1DD27CC0FDD1FC75BD94FF1
:1024E000D0930506C093040662E070E086E894E0AD
:1024F0000E947702FAC0DD27CC0FDD1FCF5BD94FDA
:10250000D0930506C093040661E070E080E994E092
:102510000E947702EAC0DD27CC0FDD1FCF5AD94FCA
:10252000D0930506C093040661E070E087E994E06B
:102530000E947702DAC08230910509F084C046E03B
:1025400050E060E070E082E096E00E94CC03E09111
:102550000206F0910306E730F10508F0C6C0E85A1C
:10256000FF4F0C94021BDD27CC0FDD1FC75AD94F3C
:10257000D0930506C093040661E070E08EE494E019
:102580000E947702B2C0DD27CC0FDD1FCF59D94F93
:10259000D0930506C093040661E070E08DE994E0F5
:1025A0000E947702A2C0DD27CC0FDD1FC759D94F8B
:1025B000D0930506C093040661E070E083EA94E0DE
:1025C0000E94770292C0DD27CC0FDD1FCF58D94F74
:1025D000D0930506C093040661E070E08BEA94E0B6
:1025E0000E94770282C0DD27CC0FDD1FC758D94F6C
:1025F000D0930506C093040661E070E085EB94E09B
:102600000E94770272C0DD27CC0FDD1FCF57D94F54
:10261000D0930506C093040661E070E08DEB94E072
:102620000E94770262C0DD27CC0FDD1FC757D94F4C
:10263000D0930506C093040666E070E088EC94E051
:102640000E94770252C0039709F04FC043E050E068
:1026500060E070E082E096E00E94CC038091020688
:102660009091030681309105B9F01CF4892B39F063
:102670003CC082309105E9F0039741F136C081E911
:1026800096E0909305068093040665E070E085E58A
:1026900094E00E94770229C083E996E090930506B2
:1026A0008093040660E070E08EEC94E00E94770274
:1026B0001CC085E996E0909305068093040660E0CF
:1026C00070E086ED94E00E9477020FC0DD27CC0F0A
:1026D000DD1FC956D94FD0930506C093040664E0A8
:1026E00070E085EE94E00E947702DF91CF9108952B
:1026F0008F92AF92CF92EF920F93CF93DF93EEEF43
:10270000F5E026813781C081D18186E02A32380701
:1027100089F441E150E060E070E08AE296E00E94D6
:10272000CC030E94030767E070E087E394E00E9417
:1027300077021EC386E02D33380721F547E050E0CD
:1027400060E070E08DE396E00E94CC0340913F068C
:1027500060913D061F921F92812CAA24A394C12C44
:102760000F2EF3E0EF2EF02D00E020EB8C2F0E94D7
:10277000830163E070E084E494E00E9477020F90AC
:102780000F90F6C286E02F33380709F547E050E096
:1027900060E070E08FE396E00E94CC0340913D063C
:1027A00060913F061F921F92812CAA24A394C12CF2
:1027B000E12C03E020EB8C2F0E94830160E070E0AD
:1027C0008DE794E00E9477020F900F90D1C2CE0166
:1027D000880F991F875B994F2817390761F54FE0DC
:1027E00050E060E070E00E94CC03CE01880F991F9A
:1027F00082509A4FFC01ED5BFF4F4081389660811B
:102800001F921F920F2EF6E08F2EF02DAA24A39474
:10281000CC24C3946894EE24E2F800E020E38C2FEB
:102820000E94830162E070E086E894E00E947702F3
:102830000F900F909DC2CE01880F991F8F5B994F0B
:102840002817390751F543E050E06DEF7FEF0E9404
:10285000CC03CE01880F991F82509A4FFC01E55B93
:10286000FF4F4081389760811F921F920F2EF5E035
:102870008F2EF02DAA24A394CC24C394E12C04E041
:1028800020E38C2F0E94830161E070E080E994E0F6
:102890000E9477020F900F906BC2CE01880F991F94
:1028A0008F5A994F2817390739F54FE750E060E004
:1028B00070E00E94CC03FE01EE0FFF1FEF5AF94FAC
:1028C00060811F928FE78F930F2EF9E08F2EF02DEE
:1028D000AA24A394CC24C394E12C00E020E440E09B
:1028E0008C2F0E94830161E070E087E994E00E94F0
:1028F00077020F900F903CC2CE01880F991F875A24
:10290000994F2817390761F54FE150E060E070E01A
:102910000E94CC03CE01880F991F82509A4FFC0170
:10292000ED57FF4F4081B89760811F928FE18F93E1
:1029300088248394AA24A394CC24C3940F2EF6E075
:10294000EF2EF02D00E020E58C2F0E94830161E046
:1029500070E08EE494E00E9477020F900F9008C21E
:10296000CE01880F991F8F59994F2817390761F5A4
:102970004FE150E060E070E00E94CC03CE01880F90
:10298000991F82509A4FFC01E756FF4F4081F697FE
:1029900060811F928FE18F9388248394AA24A3944B
:1029A000CC24C3940F2EF7E0EF2EF02D00E020E6AC
:1029B0008C2F0E94830161E070E08DE994E00E9419
:1029C00077020F900F90D4C1CE01880F991F8759BD
:1029D000994F2817390759F54FE050E060E070E053
:1029E0000E94CC03CE01880F991F82509A4FFC01A0
:1029F000E558FF4F4081709760818FE08F938F93F0
:102A00000F2EF3E08F2EF02DAA24A394CC24C39490
:102A1000E12C04E020E88C2F0E94830161E070E04B
:102A200083EA94E00E9477020F900F90A1C1CE013B
:102A3000880F991F8F58994F2817390739F54FE19B
:102A400050E060E070E00E94CC03FE01EE0FFF1F3B
:102A5000EF58F94F60811F928FE18F930F2EF7E0AF
:102A60008F2EF02DAA24A394CC24C394E12C00E053
:102A700020E740E08C2F0E94830161E070E08BEA48
:102A800094E00E9477020F900F9072C1CE01880FE0
:102A9000991F8758994F2817390769F54FE050E07B
:102AA00060E070E00E94CC03CE01880F991F825035
:102AB0009A4FFC01E559FF4F4081709660818FE08D
:102AC0008F938F930F2EF3E08F2EF02DAA24A394D3
:102AD000CC24C3946894EE24E2F800E020E88C2F24
:102AE0000E94830161E070E085EB94E00E94770230
:102AF0000F900F903DC1CE01880F991F8F57994FAE
:102B00002817390751F543E050E060E070E00E947B
:102B1000CC03CE01880F991F82509A4FFC01E55AD1
:102B2000FF4F4081B89660818FE18F931F92689428
:102B3000882481F8AA24A394CC24C394E12C06E031
:102B400020E58C2F0E94830161E070E08DEB94E022
:102B50000E9477020F900F900BC1CE01880F991F32
:102B60008757994F2817390709F042C048E050E0CD
:102B700060E070E00E94CC03FE01EE0FFF1FE757FC
:102B8000F94F6081718161157105B9F41F921F922F
:102B90006894882482F8AA24A394CC24C3940F2E8A
:102BA000F3E0EF2EF02D00E020E940E060E08C2F14
:102BB0000E9483010F900F9014C061501F921F92CA
:102BC000812CAA24A394CC24C3940F2EF3E0EF2EDF
:102BD000F02D00E020E941E08C2F0E9483010F904E
:102BE0000F9066E070E088EC94E00E947702C0C02D
:102BF00086E021393807D9F548E050E060E070E020
:102C000081E996E00E94CC03609191067091920652
:102C10006115710599F41F921F92812CA12CC12C72
:102C20000F2EF3E0EF2EF02D00E022E240E060E016
:102C30008C2F0E9483010F900F9012C061501F9241
:102C40001F92812CA12CC12C0F2EF3E0EF2EF02D22
:102C500000E022E241E08C2F0E9483010F900F9050
:102C600065E070E085E594E00E94770281C086E02F
:102C70002339380729F547E050E060E070E083E948
:102C800096E00E94CC0340919506609193061F92B6
:102C90001F926894882483F8AA24A394C12C689472
:102CA000EE24E2F800E024EB8C2F0E94830160E028
:102CB00070E08EEC94E00E9477020F900F9058C065
:102CC00086E02539380719F543E050E060E070E010
:102CD00085E996E00E94CC034091930660919506A9
:102CE0001F921F926894882483F8AA24A394C12C6D
:102CF000E12C04E024EB8C2F0E94830160E070E063
:102D000086ED94E00E9477020F900F9031C0CE01C3
:102D1000880F991F8956994F2817390749F541E0BF
:102D200050E060E070E00E94CC03CE01880F991F54
:102D300082509A4FFC01ED59FF4F4081F696608119
:102D40008FE18F931F926894882481F8AA24A3941A
:102D5000CC24C394E12C07E020E68C2F0E94830151
:102D600064E070E085EE94E00E9477020F900F908F
:102D7000DF91CF910F91EF90CF90AF908F9008950A
:102D8000DF92EF92FF920F931F93CF93DF93CDB714
:102D9000DEB76A970FB6F894DEBF0FBECDBFF82E30
:102DA000D62E042FF8941BEA819F112D112416951D
:102DB00016951695812F90E001979A83898347E0B5
:102DC00050E060E070E0CE0101960E94CC0388E103
:102DD000EAEEF2E0DE01139601900D928A95E1F79A
:102DE000812F880F180F812F880F880FEF2DE81B78
:102DF000F0E0EE0FFF1F81E090E08C0F9D1FE80FC9
:102E0000F91F8281938101118EC020E0BEC021E0B4
:102E1000033011050CF420E0E22EF801EE0FFF1F45
:102E2000E00FF11FE250FA4F238D21112DC0F80160
:102E3000EE0FFF1FE00FF11FE250FA4F248D21111A
:102E400023C0F801E250FA4FD48A9C012227377040
:102E50009981990F990F990F932BF8013496EE0FE2
:102E6000FF1FE250FA4F9083F801EE0FFF1FDF01C2
:102E7000A250BA4F19968C93E00FF11FE250FA4F0F
:102E8000F28E81E0838F83C0F801EE0FFF1FE00F09
:102E9000F11FE250FA4F238D222309F441C0F801BB
:102EA000EE0FFF1FE00FF11FE250FA4F248D222397
:102EB000B9F1F801EE0FFF1FE00FF11FE250FA4FDA
:102EC000228DF2122DC0F801E451FB4FF0804F2DFE
:102ED00068E280E00E946801F8013496EE0FFF1F5F
:102EE000E250FA4F4081C80163E070E00E94EE1AA0
:102EF000D82E64EA680F8E2D0E946801000F111F02
:102F0000F801E250FA4F418560EA6D0D8E2D0E9466
:102F1000680140EF4F0D68E280E00E94680137C011
:102F20000F5F1F4F02C000E010E0063011050CF4E7
:102F30006ECF2DC0822F90E0FC01EE0FFF1FE80F37
:102F4000F91FE250FA4F338D3323F1F0FC01EE0FFD
:102F5000FF1FE80FF91FE250FA4F348D3323A1F021
:102F6000FC01EE0FFF1FE80FF91FE250FA4F328D00
:102F7000F3120AC0FC01EE0FFF1F8E0F9F1FFC0112
:102F8000E250FA4F138E03C02F5F263098F27894E8
:102F90006A960FB6F894DEBF0FBECDBFDF91CF911A
:102FA0001F910F91FF90EF90DF9008951F920F9265
:102FB0000FB60F921124AF92BF92CF92DF92EF9291
:102FC000FF920F931F932F933F934F935F936F93B2
:102FD0007F938F939F93AF93BF93CF93DF93EF93A1
:102FE000FF938FB78093FD05F89489B18870C82E40
:102FF000D12CD594C794D594C794D594C7943C2D1F
:1030000089B18071E82EF12CF594E794F594E7945A
:10301000F594E794F594E7942E2D89B18871B82E34
:1030200009B1027010E015950795802FC9B1C470E1
:10303000D0E0D595C795D595C795AC2E002311F056
:10304000C11103C091E09093F8049091F504B91276
:1030500027C09091F8049923F1F0882369F08091BA
:10306000F604811109C0EEEFF5E0828193810197AA
:10307000938382830E943211AA2069F08091F70421
:10308000811109C0EEEFF5E082819381019693836F
:1030900082830E943211E3EFF4E00383C4836DC0A6
:1030A0001092F804222309F461C031115FC090919D
:1030B000F40439132CC09091F304291741F18111C4
:1030C0000AC0EEEFF5E084819581019795838483B2
:1030D0000E9411124BC0A1100AC0EEEFF5E08081F2
:1030E00091810197918380830E9411123FC08823B0
:1030F000E9F1AA20D9F1E0910406F091050680815A
:1031000091810197918380830E9478132FC09091C1
:10311000F30429132BC09091F404391739F181116C
:103120000AC0EEEFF5E08481958101969583848352
:103130000E9411121BC0A1100AC0EEEFF5E08081C1
:1031400091810196918380830E9411120FC0882380
:1031500069F0AA2059F0E0910406F09105068081FB
:1031600091810196918380830E947813E3EFF4E0CC
:10317000C082E182B2820383C4838091FD058FBF48
:10318000FF91EF91DF91CF91BF91AF919F918F917F
:103190007F916F915F914F913F912F911F910F916F
:1031A000FF90EF90DF90CF90BF90AF900F900FBE49
:1031B0000F901F9018951F920F920FB60F92112427
:1031C000EF92FF920F931F932F933F934F935F9331
:1031D0006F937F938F939F93AF93BF93CF93DF931F
:1031E000EF93FF938FB78093FD05F8948091C6000D
:1031F000482F50E0483F51050CF52091F9053091DA
:10320000FA05F9013396EE0FFF1FED50FB4F518386
:103210004083807F90E08038910514F02093FB0577
:103220002F5F3F4F3093FA052093F9054FE750E0A9
:1032300060E070E089EF95E00E94CC038091FB058F
:103240008F3749F4E3EFF4E0C681D781608571855B
:1032500040E051E025C08091FB058E3759F4C091C4
:10326000F705D091F8056091F9047091FA0441E0F6
:1032700050E016C0ABEFB5E0EC91F0E03496EE0F05
:10328000FF1FED50FB4FC081D181EC91F0E03596EE
:10329000EE0FFF1FED50FB4F6081718140E050E069
:1032A0002091F9053091FA058091FB05F901E81BA1
:1032B000F109339761F02230310511F4511107C043
:1032C0002130310509F049C0442309F446C0E0919A
:1032D000FB05F0E03396EE0FFF1FED50FB4F208112
:1032E0003181207F33272039310541F0203B3105E2
:1032F00079F02038310509F0ABC005C041E08C2FD2
:103300000E94C016A5C040E08C2F0E94C016A0C02D
:10331000219709F09DC06115710599F440919106BE
:10332000509192064115510531F440E062E280E08F
:103330000E9468018DC0495F62E280E00E946801DE
:1033400087C0CB0162E170E00E94EE1A48E0460FB0
:1033500062E280E00E9468017BC08091FB05B901B8
:10336000681B71096230710559F02130310511F483
:10337000511106C0232B09F06BC0442309F468C027
:10338000E091FB05F0E03396EE0FFF1FED50FB4F91
:1033900080819181807F9927803D910529F0803E31
:1033A000910509F450C054C02097D9F0E12CF12CBC
:1033B0003BC0809195064091930670E1879F400D38
:1033C0001124405464EB600F8C2F0E9468012196F9
:1033D00002C0C0E0D0E0C230D1055CF30F5F1F4FE8
:1033E00002C000E010E0033011059CF331C02091D1
:1033F0009506CE0162E170E00E94EE1A462F80E150
:10340000289F400D1124405464EB6E0D802F0E94C4
:1034100068010F5F1F4F02C000E010E0023011058D
:1034200034F39FEFE91AF90AE3E0EE16F104A4F38E
:103430000FC0FE01E451FB4F408168E280E00E9432
:103440006801219602C0C0E0D0E0C630D1058CF3FF
:103450008091FD058FBFFF91EF91DF91CF91BF91DB
:10346000AF919F918F917F916F915F914F913F911C
:103470002F911F910F91FF90EF900F900FBE0F9023
:103480001F9018951F920F920FB60F921124EF9272
:10349000FF920F931F932F933F934F935F936F93DD
:1034A0007F938F939F93AF93BF93CF93DF93EF93CC
:1034B000FF938FB78093FD05F894C0E0D0E070C013
:1034C00081E0C330D1050CF480E0182FFE01EE0F2F
:1034D000FF1FEC0FFD1FE250FA4F838D8823C9F1C7
:1034E000FE01EE0FFF1FEC0FFD1FE250FA4F848D1F
:1034F00081112FC0FE013496EE0FFF1FE250FA4FEC
:103500004081CE0163E070E00E94EE1A082F64EA69
:10351000680F812F0E9468017E01EE0CFF1CF701ED
:10352000E250FA4F418560EA600F812F0E946801E6
:10353000FE01E451FB4F4081405168E280E00E946F
:103540006801F701EC0FFD1FE250FA4F81E0848F14
:1035500026C0FE01EE0FFF1FEC0FFD1FE250FA4FD9
:10356000838D81111CC0FE01EE0FFF1FEC0FFD1FAC
:10357000E250FA4F848D882391F0FE01E451FB4F15
:10358000408168E280E00E946801FE01EE0FFF1FAB
:10359000EC0FFD1FE250FA4F128E138E148E2196FF
:1035A000C630D1050CF48CCF8091FD058FBFFF9103
:1035B000EF91DF91CF91BF91AF919F918F917F91CB
:1035C0006F915F914F913F912F911F910F91FF90BC
:1035D000EF900F900FBE0F901F90189597FB072E3E
:1035E00016F4009407D077FD09D00E94081B07FC51
:1035F00005D03EF4909581959F4F08957095619503
:103600007F4F0895EE0FFF1F0590F491E02D099470
:10361000AA1BBB1B51E107C0AA1FBB1FA617B707F8
:1036200010F0A61BB70B881F991F5A95A9F7809514
:103630009095BC01CD010895A0E0B0E0E2E2FBE18D
:103640000C94D31DAE014B5F5F4FFA0161917191F4
:10365000AF018091A1069091A2060E94321BE2E088
:103660000C94EF1DABE0B0E0E8E3FBE10C94C31D6C
:103670006C017B018A01FC0117821682838181FF24
:10368000CCC1CE0101963C01F6019381F70193FD77
:10369000859193FF81917F01882309F4BAC1853216
:1036A00039F493FD859193FF81917F01853229F44F
:1036B000B60190E00E94291DE7CF912C212C312CDE
:1036C000FFE1F315D8F08B3279F038F4803279F0DD
:1036D0008332A1F4232D20611DC08D3261F080332F
:1036E00069F4232D216016C0832D8260382EE32DCE
:1036F000E4603E2E2AC0F32DF8601DC037FC2DC0BB
:1037000020ED280F2A3040F08E32B9F436FC81C10A
:10371000232D2064322E19C036FE06C08AE0989E02
:10372000200D1124922E11C0EAE02E9E200D1124AE
:10373000222EF32DF0623F2E08C08C3621F4832D0B
:103740008068382E02C0883641F4F70193FD8591D8
:1037500093FF81917F018111B3CF982F9F7D955465
:10376000933028F40C5F1F4F9FE399830DC083367D
:1037700031F0833771F0833509F059C021C0F80169
:10378000808189830E5F1F4F88248394912C53017D
:1037900013C02801F2E04F0E511CF801A080B18047
:1037A00036FE03C0692D70E002C06FEF7FEFC501E8
:1037B0000E941E1D4C018201F32DFF773F2E16C083
:1037C000280122E0420E511CF801A080B18036FE93
:1037D00003C0692D70E002C06FEF7FEFC5010E944A
:1037E000131D4C01F32DF0683F2E820133FC1BC0EA
:1037F000822D90E088169906B0F4B60180E290E040
:103800000E94291D2A94F4CFF50137FC859137FEDB
:1038100081915F01B60190E00E94291D21102A9438
:1038200021E0821A91088114910471F7E8C084366E
:1038300011F0893641F5F80137FE07C060817181CA
:10384000828193810C5F1F4F08C060817181072EB8
:10385000000C880B990B0E5F1F4FF32DFF763F2E48
:1038600097FF09C090958095709561957F4F8F4F18
:103870009F4FF0683F2E2AE030E0A3010E94651DB3
:10388000882E861845C0853731F4232D2F7EB22E21
:103890002AE030E025C0932D997FB92E8F36C1F0F4
:1038A00018F4883579F0B5C0803719F0883721F0E1
:1038B000B0C0E92FE061BE2EB4FE0DC0FB2DF46058
:1038C000BF2E09C034FE0AC0292F2660B22E06C0C2
:1038D00028E030E005C020E130E002C020E132E025
:1038E000F801B7FE07C060817181828193810C5F0E
:1038F0001F4F06C06081718180E090E00E5F1F4F16
:10390000A3010E94651D882E8618FB2DFF773F2E90
:1039100036FE0DC0232D2E7FA22E891458F434FEBE
:103920000BC032FC09C0832D8E7EA82E05C0B82C9A
:10393000A32C03C0B82C01C0B92CA4FE0FC0FE01FB
:10394000E80DF11D8081803321F49A2D997EA92EF6
:1039500009C0A2FE06C0B394B39404C08A2D867831
:1039600009F0B394A3FC11C0A0FE06C0B21488F401
:10397000280C922C9B180EC0B21460F4B60180E2A1
:1039800090E00E94291DB394F7CFB21418F42B18BD
:1039900002C0982C212CA4FE10C0B60180E390E058
:1039A0000E94291DA2FE17C0A1FC03C088E790E079
:1039B00002C088E590E0B6010CC08A2D867859F0E7
:1039C000A1FE02C08BE201C080E2A7FC8DE2B6013D
:1039D00090E00E94291D891438F4B60180E390E03C
:1039E0000E94291D9A94F7CF8A94F301E80DF11DE6
:1039F0008081B60190E00E94291D8110F5CF222020
:103A000009F442CEB60180E290E00E94291D2A947A
:103A1000F6CFF6018681978102C08FEF9FEF2B963C
:103A2000E2E10C94DF1DFC01059061507040011033
:103A3000D8F7809590958E0F9F1F0895FC016150D7
:103A4000704001900110D8F7809590958E0F9F1FC0
:103A500008950F931F93CF93DF93FB01238121FDE3
:103A600003C08FEF9FEF2CC022FF16C04681578105
:103A7000248135814217530744F4A081B1819D010F
:103A80002F5F3F4F318320838C93268137812F5FB7
:103A90003F4F3783268314C08B01EC01FB01008468
:103AA000F185E02D0995892BE1F6D80116968D91C7
:103AB0009C911797019617969C938E931697CE011B
:103AC000DF91CF911F910F910895FA01AA27283015
:103AD00051F1203181F1E8946F936E7F6E5F7F4FDB
:103AE0008F4F9F4FAF4FB1E03ED0B4E03CD0670F57
:103AF000781F891F9A1FA11D680F791F8A1F911DAA
:103B0000A11D6A0F711D811D911DA11D20D009F4F9
:103B100068943F912AE0269F11243019305D31933B
:103B2000DEF6CF010895462F4770405D4193B3E024
:103B30000FD0C9F7F6CF462F4F70405D4A3318F0CB
:103B4000495D31FD4052419302D0A9F7EACFB4E07C
:103B5000A6959795879577956795BA95C9F7009734
:103B60006105710508959B01AC010A2E06945795D5
:103B7000479537952795BA95C9F7620F731F841F2C
:103B8000951FA01D08952F923F924F925F926F92C2
:103B90007F928F929F92AF92BF92CF92DF92EF92DD
:103BA000FF920F931F93CF93DF93CDB7DEB7CA1B5E
:103BB000DB0B0FB6F894DEBF0FBECDBF09942A8889
:103BC000398848885F846E847D848C849B84AA8431
:103BD000B984C884DF80EE80FD800C811B81AA81BE
:103BE000B981CE0FD11D0FB6F894DEBF0FBECDBF89
:083BF000ED010895F894FFCFE8
:103BF8000000000200000000130100000000312056
:103C08003E2032203E2033203E20347E000000310A
:103C180020262032203E2033203E20347E00000023
:103C28002832203E20332920262031203E20347E91
:103C3800002831203E20322920262033203E2034FF
:103C48007E0031203E20327E2C2033203E20347EE0
:103C580000000031203E2028322026203320262054
:103C680034297E0031203E20337E2C20327E2C20C9
:103C7800347E000000317E2C20327E2C20337E2CB6
:103C880020347E0000004F4646000000000000007F
:103C9800000000000000004F4E000000000000007F
:103CA80000000000000000004F4646000000000031
:103CB800000000000000000000332E383220487A4F
:103CC80000000000000000000000352E33332048BB
:103CD8007A00000000000000000000352E37372071
:103CE800487A00000000000000000000362E313144
:103CF80020487A00000000000000000000362E3640
:103D08003020487A00000000000000000000392E32
:103D1800323320487A000000000000000000003420
:103D2800362E313120487A000000000000000000E3
:103D380036392E323220487A000000000000000098
:103D4800004F464600000000000000000000000090
:103D58000000666F7277617264206C6F6F7000008C
:103D68000000006F6E652073686F74202B206C6FE5
:103D780077000000666F72776172642B7265762037
:103D88006C6F6F70006F6E652073686F74202B20E6
:103D980068696768000072657665727365206C6F84
:103DA8006F70000000000072657665727365202BE5
:103DB80020686967680000007265762B666F727705
:103DC800617264206C6F6F700072657665727365DE
:103DD800202B206C6F7700000000370149015D013E
:103DE800720188019F01B801D201ED010B022A027C
:103DF8004A022020202020202020202020202020AF
:103E080020200A20202020202020202020202020C0
:103E1800202020006F702025642025733A0A25642D
:103E2800006F702025642025733A0A302E3500254E
:103E3800732025643A0A2573006F702025642025B5
:103E4800733A0A25730064696E6720646F6E672091
:103E58007069616E6F00746F78696320736C756444
:103E6800676500776F6F64656E20737465656C00B5
:103E7800737465656C206472756D207061640028C8
:103E8800756E296E61747572687974686D007265F3
:103E980065647920726970706572007361776C6906
:103EA8006B650074756E656420626F756E6365007E
:103EB8006D6F727068206D6574616C006765742839
:103EC8007329206E6173747900666C617270207753
:103ED8006F62626C650070616E20666C7574650057
:103EE8006465636570746976652062617373006ADE
:103EF800616767656420455000616C6C20636F6E74
:103F080073756D696E67006F6E65206F706572619D
:103F1800746F7200737175656C6368790075676C8E
:103F2800792062656C6C00707265736574207061CD
:103F380074636800616C676F726974686D0061749E
:103F48007461636B004C464F206672657100426F66
:103F58006E6579204369726375697472790A2020E5
:103F68006D6567616D65676132363132006665651A
:103F7800646261636B0066726571206D756C7400B4
:103F8800646574756E65006C6576656C0064656360
:103F98006179007375737461696E00737573742049
:103FA800726174650072656C656173650072617435
:103FB80065207363616C6500535347454700766914
:103FC800627261746F00414D2073656E7369746924
:103FD8007669747900414D000008040C0001020460
:023FE8000506CC
:00000001FF
